:020000040FE10A
:10080000001000205109E10F4D09E10FE90BE10F44
:100810004D09E10F4D09E10F4D09E10F4D09E10FC0
:100820004D09E10F4D09E10F3833E10F4D09E10F9B
:100830004D09E10F7833E10F4D09E10F4D09E10F4B
:100840004D09E10F4D09E10F4D09E10F4D09E10F90
:100850004D09E10F4D09E10F4D09E10F4D09E10F80
:100860004D09E10F4D09E10F4D09E10F4D09E10F70
:100870004D09E10F4D09E10F4D09E10F4D09E10F60
:100880004D09E10F4D09E10F4D09E10F4D09E10F50
:100890004D09E10F4D09E10F4D09E10F4D09E10F40
:1008A0004D09E10F4D09E10F4D09E10F4D09E10F30
:1008B0004D09E10F4D09E10F4D09E10F4D09E10F20
:1008C0004D09E10F4D09E10F4D09E10F4D09E10F10
:1008D0004D09E10F4D09E10F4D09E10F4D09E10F00
:1008E0004D09E10F4D09E10F4D09E10F4D09E10FF0
:1008F0004D09E10F4D09E10F4D09E10F4D09E10FE0
:100900004D09E10F4D09E10F4D09E10F10B5054CFF
:10091000237833B9044B13B10448AFF300800123AB
:10092000237010BD08100020000000002C35E10FDE
:1009300008B5034B1BB103490348AFF3008008BD62
:10094000000000000C1000202C35E10FFEE7000035
:1009500008B500F021F800F0C1F90A4B0A490B4A2A
:100960008B4206D30A4A0B4B0021934206D300F078
:100970003FF952F8040B43F8040BF1E743F8041B6A
:10098000F3E700BF00100020081000202C35E10F15
:100990002410002008100020044B054A9A60D3F868
:1009A000882042F47002C3F88820704700ED00E010
:1009B0000008E10FC0F30A032DE9F04105460F4698
:1009C00016460BB900F0F0FA05F5006424F4FF6454
:1009D00024F0070405EB0608A04507D8324639463F
:1009E00028460223BDE8F04100F0E5BA204600F0B9
:1009F000DBFA04F50064EFE770B4084DD5F8285829
:100A00002E698642034606D86C6913449C4202D381
:100A100070BCFFF7CFBF70BC704700BF0000E10F94
:100A200030B51446154A936A1D68154B9D4285B032
:100A300021D100F5004310F5004F03931BD2039B17
:100A4000B3F5801F17D2039BC3F58013A34212D3C3
:100A500050B9D2F828385A69B2F5004F04D918694C
:100A6000019100F0A1FA01990398224605B0BDE872
:100A70003040FFF79FBF05B030BD00BF0000E10F61
:100A8000AD1007B07FB50346D0B10E4A6D4602F1F6
:100A90001006106851682C4603C40832B24225463D
:100AA000F7D15A1E0DF10F010F3311F8010912F899
:100AB000014F844204D19A42F7D1012004B070BDA5
:100AC0000020FBE72433E10F036913F0FE0F0CBF96
:100AD0000120002070470000F0B5036803F1604377
:100AE000B3F5802FA1B0044662D8334A4368D2F8E8
:100AF000282816699E425BD8B3F5801F58D8456BED
:100B000006F14003AB4255D8B5F5801F52D82846B0
:100B1000FFF7B8FF00284DD02846FFF7D5FF80B17A
:100B20006F6977B1022F0ED1AB69C4F1040119448A
:100B30004FF0FF32204600F0AFFF204BC31A58425F
:100B4000584121B0F0BD40F2046328460593FFF7F9
:100B500099FF0028F5D02846FFF7B6FF0028F0D00F
:100B6000012F25D1AD69AE4222D8AC4220D8B5F5CF
:100B7000801F1DD806A801F017F82A1B214606A8D9
:100B800001F01CF806A801F01BF801F01DF8039015
:100B900001F01EF8039B009005F12002294606A8EB
:100BA00000F0C2FF05900598B0FA80F04009C8E750
:100BB0000020C6E70120C4E70000E10FE320BBDE10
:100BC00008B54FF0FF3200F067FF044B984203D1A5
:100BD00040F2092000F086F9002008BDE320BBDECA
:100BE00001F0CCBF02F030B84FF4017000F07AB9D8
:100BF000354B012213B55A64344BD3F8FC20344BE7
:100C0000120E12D14AF6E851C3F89011D3F8981198
:100C100041F00401C3F89811C3F89021D3F864217E
:100C200042F40052C3F8642101E0012AF6D0294AB7
:100C3000136A23F4441343F488131362A2F5804229
:100C4000136843F480731360214BD3F8A42142F45A
:100C5000F842C3F8A4215B68FFF7C2FF00F010F967
:100C600008B900F0FBF801F0EDFD044658B900F0BA
:100C700007F908B100F0FEF840F2012000F032F967
:100C80004FF4017018E000F0FBF808B900F0ECF840
:100C900000F00DF9012802D900F0E0F8FEE700F0BD
:100CA00010F90D4B0193019B002B0ADC40F2054328
:100CB0009C42E5D140F2032000F014F9002002B07C
:100CC00010BD019B013BEDE700000E400081E00FED
:100CD00000300E4000400E4000350C0013B5254B8F
:100CE00001248DF806408DF807405B685B0510D540
:100CF00000F016F9A0F2022080B2072809D804FA01
:100D000000F010F0C90F1EBF00238DF806308DF8DB
:100D1000073000246368013307D14FF4027000F0FC
:100D2000BBF88DF806408DF807409DF807305BB1A1
:100D30000020FFF7D1FE8DF806009DF806301BB9A4
:100D40004FF4027000F0A8F89DF8063083B100F06F
:100D500097F808B100F08EF8074A00239360184610
:100D6000016881F3088881F3098840688746FEE7B7
:100D700002B010BD00500E4000ED00E0B1F5BC7FA8
:100D800010B5044610D34FF4BC72002102F0B6FA3D
:100D90000023637004F5807204F1B80104F12800A7
:100DA000BDE8104000F0B2BA40F2052010BD13B506
:100DB000044600910146283000F0D8FAC4F87401C6
:100DC00018B141F20703984209D1A3784BB1E278F8
:100DD00040F2032040F20223002A08BF184602B066
:100DE00010BD40F20120FAE72DE9F04387B00DF184
:100DF00008090446DDF838800E4617460021102207
:100E000048461D4602F07AFA0021C8F800101C225C
:100E1000284602F073FA32463B46CDF80090214650
:100E200004F1280000F0A2FA23789A0744BF626810
:100E3000C8F80020DB0705D51C2204F1080128466C
:100E400002F04EFA2378002B40F2064018BF002033
:100E500007B0BDE8F0834FF4BC7070474FF000530B
:100E60004CF23C325A8070474FF000534AF6C03281
:100E70005A8070474FF000534FF20F025A8070476C
:100E80004FF000534AF6C0305B8823F00F039BB24B
:100E90001B1A5842584170474FF0005208B5108055
:100EA000FFF7EEFF10B94FF20F03538008BD08B5EE
:100EB000FFF7E6FF20B14FF00053588800F00F0015
:100EC00008BD08B5FFF7DCFF50B14FF00052538862
:100ED00003F00F010F2914BF013323F00F035380D8
:100EE00008BD000008B5FFF7D7FF0A4A136823F4CE
:100EF000E06343F400731360BFF34F8F0649074B61
:100F0000CA6802F4E0621343CB60BFF34F8F00BFA7
:100F1000FDE700BF00500E4000ED00E00400FA05C0
:100F20004FF000534FF20F015A888A4201D11888BE
:100F300070473AB91B88012B40F2022018BF4FF4CA
:100F4000007070474FF40070704713B504460B46AD
:100F50001046A20753BF6FEA03434FF6FF7242EAFF
:100F600003436FEA13430193042324F003010DEBC1
:100F7000030201F0A1FF02B010BD07B503469B07B5
:100F800053BF6FEA01414FF6FF7343EA01416FEA35
:100F900011410422019120F003000DEB020101F048
:100FA00089FF03B05DF804FB08B501F035FFB0FA26
:100FB00080F0400908BD072B2DE9F04105460E469B
:100FC00014461F4602D90020BDE8F08101214FF4EC
:100FD000AA4001F047FE0CB90120F5E744EA0503F9
:100FE000DA07F0D4AB0726D531883A462846FFF712
:100FF000ACFF0028E7D1023C032C05F1020506F105
:1010000002060DD924F003084346324629463846E5
:1010100001F052FF0028D6D146444544A4EB080411
:10102000002CD9D031883A462846FFF78EFFB0FA17
:1010300080F04009C8E7032CE4D8F3E7F8B505468B
:101040000E4614460AB90120F8BD42EA0003DA0749
:1010500001D50020F8E7830721D50988FFF78DFF28
:101060000028F6D1023C032C05F1020506F1020628
:101070000BD924F003073A463146284601F01AFFFF
:101080000028E6D13E443D44E41B002CDBD03188EF
:101090002846FFF772FFB0FA80F04009D4E7032C2E
:1010A000E7D8F4E7002070470020704770B5D1E919
:1010B0000152AA4205D290F840302B449B1A402B93
:1010C00010D9002012E00A6890F84040D65C90F8F1
:1010D0004120224402F03F020133013486548B60E8
:1010E00080F840408B689D42EDD8012070BD2DE90D
:1010F000F8431D461746D1E901329B1A90F840206B
:101100009DF820909DF8248013449D4204460E468D
:1011100056D9FFF7CBFF00285CD1112384F8463065
:1011200041F20200BDE8F88394F84120A25CFA5431
:1011300094F84120013202F03F0284F8412094F8F3
:101140004020013A84F84020013394F840200AB14D
:101150009D42E9D1D6E90121914201D29D4231D887
:101160009D42DAD1D4F888202946384600F094FC14
:10117000C4F88800B9F1000F04D0E06C2A46394663
:1011800000F01CFDB8F1000F08D094F843308BB18B
:10119000A06C2B463A46394600F0B5FC94F8433033
:1011A00043B1E36DA26D2B449342E36524BF00235A
:1011B00084F84330636D2B44636541F20300B1E76B
:1011C0000023C2E73268525CFA54B2680132B2605E
:1011D0000133BFE70020A5E77FB50023CDE9003349
:1011E000082315460DEB03020446FFF780FF41F28A
:1011F00003039842064626D194F8433063B108228F
:101200000DEB0201E06C00F0D9FC08230DEB0302AA
:10121000A06C114600F077FC039A6A6094F84320B2
:10122000029B2B605AB9094A934208D0084A93425C
:1012300005D00822E06C0DEB020100F0BFFC6B68EA
:10124000236500236365304604B070BDF70A0AF7D2
:10125000FC0404FC2DE9F743044658680F46164683
:101260009846002849D08B074AD1274B216ED3F8E6
:1012700028381B6902EB010C1D1D65451CD81C3369
:10128000994219D28D42284638BF0846411AC5F105
:1012900068059C4594BFC0EB0C02C0EB030207EB52
:1012A0000109284449462044019202F019F8019AA4
:1012B000FF21484602F022F8236E48F20405AB42B3
:1012C00011D8F11848F2070291420CD9ED1A3D44A9
:1012D0000422294604F1800002F002F80422FF21D2
:1012E000284602F00BF8206E3246D8E90035394620
:1012F000A847226E32442266002003B0BDE8F08386
:1013000041F20200F9E700BF0000E10FF8B503F079
:101310002003002580F842304FF0FF330446C0F828
:101320008830C0E918550F461646A0F8405080F89E
:101330004350A0F8445080F846501822FF216830EE
:1013400001F0DCFF0422FF2104F1800001F0D6FF50
:101350000422FF2104F1840001F0D0FFC4E91276D9
:1013600016B1304600F020FC0020F8BD2DE9F04F0A
:10137000A5B0CDE9112399462E9E002304460F46C1
:101380001393139A4A4501D30020C5E094F84630E0
:10139000112BF7D8DFE813F06500AC00A6004F0072
:1013A00036002B00F2013600EA013600EA0115038F
:1013B000790312007A01DE02700279034FF000080F
:1013C000636D0F2B00F292800125102314AACDF833
:1013D0000480009511A92046FFF789FE0890089A1D
:1013E00041F203039A4200F04381089B45E0012546
:1013F000D4E91432934200F24F8184F8465041F20E
:1014000003033AE04FF0FF0AD4E914539D426DD92B
:10141000ED1ADDE912329B1A94F84020032D134493
:1014200040F2B081032B00F2B08111A92046FFF7F2
:101430003DFE002321E0A04D636D072BDFD8012383
:10144000CDE9003314AA082311A92046FFF74FFE67
:101450000A900A9A41F203039A4200F04E810A9BD5
:101460000BE014AA11A92046FFF7B6FE0590059BD4
:1014700041F20302934202D0059B049345E0159A82
:1014800022650022149962658C4A914240F047819E
:10149000022284F84620F0E70123009314AA0823CF
:1014A000019511A92046FFF722FE0690069A41F207
:1014B00003039A4201D0069BDFE7149B03F07F43AE
:1014C000B3F1407F05D0112384F8463041F209037F
:1014D000D3E7159BD90706D594F8423043F00103B2
:1014E00084F842300025636D072BD5D9012342E1F2
:1014F00014AA11A92046FFF76FFE0790079D41F23D
:1015000003039D420BD0079D0495049A41F2030307
:101510009A423FF436AF049825B0BDE8F08F94F8B6
:101520004420149B22B1664A93421FD10B2340E012
:1015300094F84220D20746D594F84320002A42D19D
:1015400060498B4238D01CD85F4A934200F08480B7
:101550001ED802F17D42033A934207D00CD8574A75
:10156000934203D002F1B642934211D1112384F881
:10157000463041F20105C7E7544A9342F6D0544A37
:10158000F2E74F4A9342D1D00DD8524A93420FD03E
:10159000112384F8463014A8FFF784FD0028E8D111
:1015A00041F20805B0E74C4A9342DFD04B4ADBE7F3
:1015B0000D2384F84630A7E70E2384F84630236DC8
:1015C000C4E91632A0E7404A934241D027D83F4AA7
:1015D000934233D03E4A934234D0414A93422FD073
:1015E00014A8FFF75FFD002838D01023149884F862
:1015F0004630C4F88C00FFF757FD94F842309B0644
:1016000082D5002880D04368002B3FF47DAF204670
:1016100098470790079B002B3FF476AFA9E72E4A27
:10162000934213D02D4A93420ED0254A9342D7D1EC
:1016300094F84330002B3FF479AF97E70323B8E7E2
:101640000523B6E70623B4E70823B2E70A23B0E789
:1016500094F84330002B89D10F23AAE7112384F893
:10166000463094F84330002B9AD041F204054BE702
:10167000D4F848A000F0B0FA8023CDE9000315AA01
:101680002B460221504600F021FA99E6012384F806
:10169000433084F8463074E614AACDE9005511A908
:1016A0002046FFF724FD0990099A41F203039A426C
:1016B00018D0099BE1E600BF0000E10FEB17A6037D
:1016C000FC0404FCF90707F9F70A0AF7F50909F51C
:1016D000F60808F6FA0606FAFD0303FDFE0101FE10
:1016E000F40A0AF41C2214A907F1080001F0F8FD1D
:1016F0003B7843F001033B707AE63B78AD48159A9E
:1017000043F002033B70149B7B60236D083B7B62BC
:10171000AB6A1968814205D1DB68934205D0112379
:1017200084F8463041F20103A7E6042384F84630EA
:1017300094F8453043F0010384F845300023636694
:101740007AE6042314AACDE9005511A92046FFF733
:10175000CEFC0B900B9A41F203039A4201D00B9BF3
:101760008BE6236D042B02D9149B23660125636D40
:10177000032BE6D9092384F8463040E6002363664C
:10178000072386E79D423FF650AE402D28BF4025F7
:101790009D4228BF1D46032D88BF25F00305012368
:1017A0000DF15008CDE9003342462B4611A92046E1
:1017B000FFF79DFC0C900C9A41F203039A4201D072
:1017C0000C9B5AE694F84620072A27D1D6F808B091
:1017D000BBF1000F22D03368606E2A464146D847DD
:1017E000636E2B4463660FE608F803A00133032BF6
:1017F000FAD9042DC5F1040388BF0023EB18092A88
:1018000002930DD13346029A41462046FFF722FD4E
:101810000C900C9B002B3FF4F7ADD1E72B46E6E78D
:10182000042A7FF4F1AD7B7899077FF5EDADF3687D
:10183000002B3FF4E9AD636E042B12D802991944D2
:1018400006290ED90DF1540BABEB030B594604F1ED
:101850008400039201F044FD039AFF21584601F0F1
:101860004DFD3368029A606EF5684146A847636E85
:10187000029A1A446266C7E594F8425015F02005B2
:1018800007D0D4F88C00FFF70FFC054600283FF482
:1018900049AF4FF0010A42E04BB345B32B6933B374
:1018A00020469847DDE9123294F840809B1A434461
:1018B0008342FFF4BAADD4E91421A2EB0108B8F1D8
:1018C000400F28BF4FF04008984528BF9846434630
:1018D00014AACDE900AA11A92046FFF708FC0D9033
:1018E0000D9A41F203039A4203D00D9BC5E50120F6
:1018F000D8E794F842309A0611D5002D3FF412AF84
:10190000D5F808B0BBF1000F3FF40CAF33464246A8
:1019100014A92046D8470D900D9B002BE5D1D4E9A2
:10192000142194F84230914203F02003B4D3002BE9
:101930003FF4DCAD002D3FF4D9ADEB68002B3FF454
:10194000D5AD3146204698470D900D9B002B3FF4B6
:10195000CDADCAE794F84450002D7FF4C7AD4023C5
:1019600014AACDE9005511A92046FFF7C0FB0E903F
:101970000E9A41F203039A4201D00E9B7DE5E06C82
:1019800000F01EF9D4F84C8000F01EF9029000F02F
:101990001FF9029B00901CAA14A9404600F0C4F84D
:1019A0000E900E9B43B11123FD7084F8463041F236
:1019B000060362E5AD1007B00123FB7084F84430E4
:1019C00094E50023CDE9003314AA042311A920468D
:1019D000FFF78DFB0F900F9A41F203039A4202D05A
:1019E0000F9B049397E5D4F88820294B9A4205D0A1
:1019F000112384F8463041F20503F2E70123FB701E
:101A000094F845309B0707D0F5682DB10422336860
:101A100004F184011046A847236E7BB373686BB34F
:101A20004FF0FF3304F18001042210A810930291BB
:101A300001F046FC30B1D6E900350299042248F2A3
:101A40000400A84704F168090422494610A801F0DF
:101A500037FC98B10F4BD3F82838D3F810801422F4
:101A6000D6E9003504F16C0108F10800A84704220A
:101A7000D6E90035494608EB0200A8470123BB70B0
:101A80000C2384F846300023ABE741F2070043E51E
:101A9000E320BBDE0000E10F10B50A4CD4F8B030F3
:101AA00043F04003C4F8B030074B01241C600144EC
:101AB0009A605C60884201D1D86910BD10F8012B92
:101AC0009A61F7E700400E4000C00140F8B50446B7
:101AD0001D460F46164601F0EAFADDE906122046D9
:101AE00001F0E9FA0023636284F838700C22314671
:101AF00004F1390001F0F4FB2B0C6DBA84F8453089
:101B0000A4F84650F8BD30B585B00D46194600F131
:101B10002803CDE90152009300F1240200F13803BB
:101B200001F0E7FA05B030BD2DE9F041A2B00E4654
:101B3000DDF8A08015461F46044670B369B362B352
:101B40005BB3B8F1000F28D01548012101F08AF8E5
:101B50004022002102A801F0D1FB394602A800F082
:101B600019FB12AF41460AA800F014FB40220021E5
:101B7000384601F0C3FB3146384600F00BFB2946DE
:101B80001AA800F007FB0748009702AB2022214665
:101B900000F012FB22B0BDE8F08140F20160F9E7ED
:101BA00000050A0000000F4010B5044600F0F0FCEC
:101BB00020460021BDE8104000F0EEBC00F0F1BC72
:101BC000014600F0FBBC0000004870474A43E00FAC
:101BD000004870476A43E00F004870478642E00FB4
:101BE00003685BB903461C2053F8042F0AB9043874
:101BF000FAD10028CCBF0020012070470020704798
:101C000030B50568046802680368C1E90054C1E999
:101C100002230568046802680368C1E90454C1E945
:101C2000062330BDD1E9022330B5D1E90054056067
:101C3000046002600360D1E90454D1E90623056021
:101C400004600260036030BD2DE9F04104461D468A
:101C50000F46904600212022184601F04FFB012339
:101C60002B6001F03FF84146064604F58070FFF70F
:101C7000D9FF394604F5827004F58477FFF7D2FF67
:101C800029463846FFF7CEFF304601F02FF80D4EBB
:101C90000D4B0E4A0E490F4823656369DB010BD5D6
:101CA00001F020F8294604463846FFF7A9FF2046F0
:101CB000BDE8F04101F01AB822656165A065E665EE
:101CC000EBE700BF3938010039398401D02484FCA6
:101CD0001C82FED88B1C81A02DE9F04F2DED028BCC
:101CE0008BB004469A460D46164600F0FBFF04F5FD
:101CF000827705F14002114604F5867B804638461E
:101D00000192FFF78FFF31465846FFF78BFF04F52E
:101D10008873184606F120010093FFF783FF4046C1
:101D200000F0E4FF434921654349616501264349C9
:101D3000A165E66500F0D6FF294681463846FFF7E3
:101D400071FF04F5847805F120031946404608EE3A
:101D5000103AFFF767FF019A009B11461846FFF7FC
:101D600061FF484600F0C2FF354B2365354B636584
:101D7000A66500F0B7FF04F5807900900AF14001F4
:101D80004846FFF73DFF02A94046FFF739FF009B99
:101D9000184600F0ABFF00F0A5FF2946009058461A
:101DA000FFF740FF009B184600F0A0FF264B23657D
:101DB000264B63656FF42672A3F5FE231344A365D7
:101DC000E66500F08FFF18EE101A05463846FFF75B
:101DD00029FF284600F08AFF1D4B23651D4B6365D4
:101DE000A66500F07FFF514605464046FFF708FF15
:101DF000284600F07BFF00F075FF02A90546384633
:101E0000FFF710FF284600F071FF134B2365134BBB
:101E10006365A66500F066FF0AF1200104464846A6
:101E2000FFF7EEFE204600F061FF0BB0BDEC028B29
:101E3000BDE8F08F8AD11C81D91C83D11C81E11CA3
:101E4000D01482CB1481E11C8CE11C811C84D91C30
:101E5000E014D8141482E11C84D31482D11CE01441
:101E60002DE9F04F2DED028BA5B01E4604460192E0
:101E700008EE101A2022002104A801F03FFA4FF0CA
:101E8000010920220021304606F12007CDF81090EC
:101E900006F1400801F032FA20220021384601F014
:101EA0002DFA20220021404601F028FA0521204683
:101EB00000F01FFF00232360FF25236363636A1183
:101EC000019905F01F0351F8221009FA03F30B42A0
:101ED0002A4605F1FF3501D0154601E0002DEED16F
:101EE00000F000FF04F582733946814618460293DC
:101EF000FFF798FE484600F0F9FE704B704A2365E4
:101F00006265704AA26500F0EDFE04F5807A14A9BE
:101F100081465046FFF774FE484600F0E7FE00F0A9
:101F2000E1FE314681465046FFF77CFE484600F010
:101F3000DDFE654A654B22654FF486726365A265D6
:101F400000F0D0FE04F5867983460CA94846FFF7D9
:101F500057FE1CA95046FFF753FE584600F0C6FE38
:101F600000F0C0FE029B0393414683461846FFF7EC
:101F700059FE584600F0BAFE554B236501236365B0
:101F800000F0B0FE04F5847B314602905846FFF71E
:101F900049FE029A104600F0A9FE4E4A226502F15F
:101FA000D94202F5DE1202F595626265A2F586124B
:101FB0000123A2F2BA42A265E36500F093FE1CA9D8
:101FC00002905846FFF72EFE0CA94846FFF72AFE5E
:101FD000029A104600F08AFE3F4A22653F4A626537
:101FE0003F4AA26500F07EFE3146029004F58870FB
:101FF000FFF706FE029A104600F078FE00F072FE2F
:10200000039B029039461846FFF70CFE584641469E
:10201000FFF708FE14A94846FFF704FE029A10468F
:1020200000F064FE2F4B23652F4B636500F05AFED2
:10203000414683465046FFF7E3FD39464846FFF7E1
:10204000DFFD584600F052FE012105F01F0301FAA2
:1020500003F36A11019951F82220134212D030463D
:10206000FFF7BEFD38B13846FFF7BAFD18B140465C
:10207000FFF7B6FD70B918EE102A334631462046F8
:10208000FFF72AFE013DBFF42BAF25B0BDEC028B5C
:10209000BDE8F08F18EE101A2022304601F020F92A
:1020A00018EE103A20229918384601F019F920222A
:1020B00004A9404601F014F9E4E700BF8AD11C816D
:1020C000821CC00C0C0C0100C00C0C83D91C83D8E2
:1020D0008AD11C83DA0C81148CE11CD01484E314A3
:1020E00082D11C01D81483D11CC00C012DE9F04110
:1020F000044690B00D460521164600F0FAFD002377
:10210000202223600DEB020023631E49636301F06C
:10211000E7F808AA6B4605F140012046FFF794FD59
:1021200000F0E0FD04F586780746694604F5827004
:10213000FFF778FD29464046FFF774FD05F12001C1
:1021400004F58870FFF76EFD384600F0CFFD0E4BAA
:1021500023650E4B63650E4BA3650123E36500F019
:10216000C1FD06F12001054604F58070FFF748FD2A
:1021700031464046FFF744FD284600F0B7FD10B059
:10218000BDE8F081C433E10F8AD11C81D91C83D111
:102190001C81E11C38B5202204460D46002101F0C7
:1021A000ADF805F12003601E13F8012D00F8012F92
:1021B000AB42F9D138BD00002DE9F04FBBB00D4660
:1021C0000446002193460AA86022449E994601F0E5
:1021D00095F86022002122A801F090F8002D00F06F
:1021E0001781B9F1000F00F01381002E00F010816B
:1021F000BBF1000F40F30C81002323602363636372
:10220000636843F0100363600C21204600F071FD09
:102210006368814923F4406343F400636360636847
:1022200023F4407343F40073636020222AA801F072
:1022300057F800F057FD04F5847882463146404651
:1022400004F58677FFF7EEFC2AA93846FFF7EAFC8B
:10225000504600F04BFD714A2265012363656369B6
:10226000DA0104D440F202603BB0BDE8F08F311FC8
:10227000082351F8040F002800F0C28000F032FD5E
:1022800006F1200A019051464046FFF7CBFC2AA9EF
:102290003846FFF7C7FC019B184600F027FD0123D5
:1022A0005E4A226563656369DB01DBD5524608231C
:1022B00052F8041B002900F0A7802022002132A838
:1022C00001F01CF8BBF1200FA8BF4FF0200B0BF161
:1022D000FF32013D22F003033AA940330B4402F0E0
:1022E000030C15F8010F53F8601C4FEACC0C00FAF0
:1022F0000CF00843013A43F8600CEBD200F0F2FC1A
:1023000032A905464046FFF78DFC284600F0EEFC5A
:10231000434B236500F0E6FC04F5807B054632A9BB
:102320005846FFF76DFC284600F0E0FC2AAA02ABF5
:1023300051462046FFF788FC00F0D4FC04F5887A6B
:10234000054602A904F58270FFF76CFC32A95046DD
:10235000FFF768FC31463846FFF764FC284600F07A
:10236000C5FC304B236503F1FA43A3F500636365B5
:1023700000F0B8FC32A905465046FFF741FC02A91F
:102380005846FFF73DFC284600F0B0FC26490AAB52
:1023900032AA2046FFF764FD22AB02AA4946204636
:1023A000FFF75EFD0AAA11462046FFF79FFE22AB0B
:1023B00019460AAA2046FFF78FFC22AA114620469A
:1023C000FFF794FE00F08EFC0C210546204600F03D
:1023D00090FC22A94046FFF725FC31463846FFF71E
:1023E00021FC284600F082FC104B2365104B6365EE
:1023F000636913F0807F40F2046018BF002033E768
:10240000013B7FF436AF2DE7013B7FF451AF29E765
:1024100040F2016028E700BFE433E10F3035DA1005
:1024200030D00C0130E11C840434E10F3035DA1473
:10243000393801002DE9F34799460A9B0C46196883
:102440003F290546164642D85A68002A41D0224AFA
:10245000002E14BFB046904601F03F07091928BF6F
:102460005A68196024BF01325A60AFB1C7F1400AFF
:10247000A24521D82946524609EB070000F030FF5B
:1024800001230093414633464A46002000F09EF85F
:10249000403C55443C44B0463F2C0CD9A309009322
:1024A0002A4633464146002000F090F824F03F03CE
:1024B0001D4404F03F0400272CB12246294609EBB5
:1024C000070000F00DFF002002B0BDE8F087904645
:1024D000C2E7DFF80480BFE74434E10F30B40546BB
:1024E000084611461A46DDE9023425B931B1029495
:1024F00030BCFFF79FBF024830BC70470846FBE77F
:1025000080AFFFFF2DE9F0431468566887B0994605
:10251000E3008DF80F3063098DF80E30630B8DF8F2
:102520000D30630D8DF80C30F30003EB54738DF810
:102530000B3004F03F0473091546372C8DF80A3030
:102540004FEA563394BFC4F13802C4F1780207460B
:10255000CDE9001588468DF809300C490346760D03
:1025600000208DF80860FFF7B9FF082143463A467E
:102570000DEB01000095FFF75DFF2022394648462C
:1025800000F0AEFE002007B0BDE8F0836434E10F38
:102590006822002100F0B2BE0023C0E900331846D3
:1025A000704707B500F128030190009300F108037C
:1025B0000020FFF793FF03B05DF804FB02460B46D3
:1025C00000F128010830FFF79DBF00002DE9F04F12
:1025D0009BB00546884691461E4600F04DFE0446D7
:1025E000002D40F0D480042303604560C564436837
:1025F00002AA23F44063436092460563A8F10403F2
:10260000456308F11C0853F8041F09BA434542F812
:10261000041BF8D100F066FB029BC4F80431039B55
:10262000C4F80431049BC4F80431059BC4F8043198
:10263000069BC4F80431079BC4F80431089BC4F816
:102640000431099BC4F8043100F050FB514B236561
:10265000DFF844B10023019309F00308249B019A99
:102660009A4231D1B30775D000F03CFBD4F8005149
:10267000D4F80011D4F80021D4F80031CDE902518A
:10268000CDE90423D4F80051D4F80011D4F8002186
:10269000D4F80031CDE90651CDE9082300F026FB3E
:1026A00020225146304600F01BFE204600F0EEFD91
:1026B000331F1C3653F8042F12BAB3421A60F9D1F3
:1026C00000201BB0BDE8F08F019B09EB8315B8F12A
:1026D000000F05D0294640220AA800F001FE0AADED
:1026E00000F000FBD5E90123E9682F68C4F8A47164
:1026F000C4F8A421C4F8A431C4F8A411D5E9052371
:10270000E9692F69C4F8A471C4F8A421C4F8A431FC
:10271000C4F8A411D5E90923E96A2F6AC4F8A471A1
:10272000C4F8A421C4F8A431C4F8A411D5E90CE379
:10273000D5E90E12C4F8A4E1C4F8A431C4F8A41178
:10274000C4F8A42100F0D2FA019BC4F850B00133C0
:10275000019383E700F0C6FAD4F80051D4F80011D1
:10276000D4F80021D4F80031C6E90051C6E90223AB
:10277000D4F80051D4F80011D4F80021D4F8003175
:10278000C6E90451C6E9062300F0B0FA8DE76FF000
:10279000710096E7888AC801070D81010023036054
:1027A0004FF0FF3201238B4201D30020704740F8E5
:1027B00023200133F7E703680133022B40F2045072
:1027C00038BF0020704740F20250704710B5DEB0AD
:1027D0004FF4BC726946002000F052F940F2012427
:1027E0000021684600F087F8A042F9D040F20323A8
:1027F000984217D19DF8003003F00302022A11D04D
:102800009A0713D50E4A0199D2F828289268914266
:102810000CD95A9800F064F920B109994FF400409E
:10282000FEF7CEF940F205405EB010BDDB07F9D5EA
:1028300003995A9800F078F90028F3D00020F3E7C4
:102840000000E10FFFF7C2BF31B10A4B5A68824264
:1028500005D80023C1E9003340F201407047013040
:1028600053F830200A6003EBC00043684B6000203F
:10287000704700BF0C35E10F01221A70704700004D
:1028800070B40C4611460C4A556885420DD901308A
:1028900002EBC006E5187668B5420AD852F8300057
:1028A0001A46204470BC00F073B940F2014070BC7D
:1028B000704740F20240FAE70C35E10F30B5A3B0A3
:1028C00004460D4602AAD0F87011D0F868018023A2
:1028D000FFF7D6FF0095802302AA214604F12800C5
:1028E000FEF744FDD4F87031C4F874018033C4F8A5
:1028F000703123B030BD1FB50023CDE90033CDE9E1
:102900000213D0F87431044693B9D0E95B329A428D
:102910000ED26946FFF7D2FFD4F8740198B141F2A4
:10292000070240F20123904208BF184604B010BDD0
:10293000A3785BB1E27840F2022040F20323002A40
:1029400018BF1846F2E740F20120EFE740F20220FC
:10295000ECE7000070B586B00DF107030D46029359
:1029600000211D4B11600446164628461C22CDE965
:1029700003338DF80710059300F0C0FC9DF8073075
:1029800053B994F86E30102B06D0D4F874311BB9BB
:10299000D4E95B329A4217D323789A0744BF62681E
:1029A0003260DB0705D51C2204F10801284600F03F
:1029B00097FC9DF8073063B92378002B40F206405E
:1029C00018BF002006B070BD02A92046FFF776FFB1
:1029D000D4E70020F6E700BF7928E10F70B40C4679
:1029E00011460C4A556885420DD9013002EBC006EC
:1029F000E5187668B5420AD852F830001A462044E5
:102A000070BC00F0DBB840F2014070BC704740F28F
:102A10000240FAE70C35E10F074B5A68824207D9AA
:102A2000013003EBC00253F83000516800F0E8B801
:102A300040F20140704700BF0C35E10F70B505460C
:102A400088B0C0B14FF400320023C0E900230B4B23
:102A50001A785B680272C3606C46684600F080F8C2
:102A60000FCC05F114060FC694E8070005F1140316
:102A700086E807002B6108B070BD00BF0C35E10F80
:102A800037B50C46054611462046FEF777F948B99A
:102A900069462846FFF7D8FE20B9019BC4F8685163
:102AA000C4F86C3103B030BD38B500F5807204460F
:102AB0000D46202300F1B8012830FEF727FCD4F89A
:102AC00074311BB9D4E95B329A4203D3A07800B1C8
:102AD000E07838BD29462046FFF7F0FEEFE700001A
:102AE0000F4B00B5D3F828389B688B42E3B003D373
:102AF000002063B05DF804FB4FF4BC7204A9FFF73B
:102B0000BFFF0028F4D10223CDE900008DF8113079
:102B10000290044B0393694604A8FFF7C5FFE8E75A
:102B20000000E10F210AE10F00B5E3B04FF4BC72E1
:102B300004A9FFF7A5FF70B901238DF81130074BE9
:102B40000090CDE901300390694604A8FFF7ACFF7F
:102B500063B05DF804FB0020FAE700BFF909E10F5C
:102B600070B5054D064604460FCD0FC495E8070025
:102B700084E80700304670BDF034E10F0020704754
:102B8000024BD86900F00100704700BF00000E4002
:102B9000B2F5801F10B51346044608460BD8B4F5AD
:102BA000801F08D82344B3F5801F04D8214600F0C5
:102BB00097FB002010BD40F20240FBE7B2F5801FFA
:102BC00010B506D8B0F5801F03D88318B3F5801F61
:102BD0000ED940F2024010BDC45801340AD104336A
:102BE0009A42F9D8FEF72AFA0028F2D00020F2E73C
:102BF0000023F5E740F20340EDE74FF0FF30704768
:102C000038B541EA0003C3F30A030446CBB9B1F572
:102C1000801F0FD8B0F5801F0CD80D18B5F5801F98
:102C200008D8204604F50064FEF7BEF9AC4204D093
:102C30000028F6D140F2024038BD0028FAD000202A
:102C4000FAE740F20440F7E700207047044BD3F85E
:102C50004421D20703D4D3F840211042FBD170475E
:102C600000400E4038B5C0F30323013B092B16D8B2
:102C7000DFE803F02616151505191C151F23124C45
:102C80000023C0F3043513B11846FFF7DFFF04F14A
:102C9000424404F5801405EBC404A400216038BD4F
:102CA0000A4C0023EDE70A4C0123EAE7094C102304
:102CB000E7E7094C4FF48033E3E7084C0023E0E7F3
:102CC000074C0023DDE700BFB0400E40C0400E407F
:102CD000E0400E40E8400E40F0400E4050410E40B3
:102CE00000400E40EFF3108072B6704700B962B634
:102CF0007047436823F01F030E290BD8DFE801F06B
:102D000008080808080B0B0B080808080B0B0B0039
:102D1000194341607047194341F01001F9E7000081
:102D2000094A0A4BD969C90705D512B96FF00200E3
:102D30007047013AF6E7002AF8D001221861DA60FC
:102D4000D86940F3800070478096980000000E40DC
:102D500070B5C1B10E4A0023082550F82340946194
:102D60000C4CD5600133D669F60705D514B96FF060
:102D7000020009E0013CF6E7002CF8D0D469A40772
:102D800003D49942E9D1002070BD6FF00100FBE748
:102D900000000E40809698002DE9F8431C4B8846B1
:102DA00041F671311D6C19641A4907464868496833
:102DB000996841F00101ADB2996096084FF00009A1
:102DC000B14501D3002005E007EB89042046FFF759
:102DD000A7FF48B10E4B9A6822F001029A600DB12C
:102DE00000221A64BDE8F883C4F30A04C4F5006441
:102DF000A408A6EB0901A14228BF21464046FFF7DF
:102E0000A7FF0028E6D1894408EB8108D8E700BF76
:102E100000000E4000300E40234B41F671311A6C19
:102E200010B5196421494C684968996841F001015D
:102E3000996001211861D960D9694C0792B209D50E
:102E4000996821F0010199600AB100221A644FF0DB
:102E5000FF3026E00221D9601549D869C00700D5A6
:102E600069B9D86910F002000BD0996821F001010E
:102E700099600AB100221A646FF0010011E0013973
:102E8000EBE741B9986820F00100986002B119643D
:102E90006FF0020005E0996821F0010199600AB124
:102EA000186410BD1046FCE700000E4000300E40D4
:102EB00080969800FFF770BF2DE9F04F054602F1AC
:102EC0006040B0F5802F03D94FF0FF30BDE8F08FA0
:102ED000DFF8C4C02E4CDFF8C490DFF8C480302681
:102EE00006FB05C64FF44010C6F880000020C6F867
:102EF0008400C6F88800C6F8980041F67130D4F80E
:102F000040A02064A0684FF0010E40F00100A060D6
:102F10000EFA05F55BB90422E260A26822F0010214
:102F2000A2601FFA8AF202B123641846CEE701F5C7
:102F30000060216100EA0900C4F80CE0401AD4F8EE
:102F40001CB0984228BF18461BF0040F4FEA9007A8
:102F5000BAD1013F3F0147F06057C6F88C700D4F62
:102F6000C6F89020C6F89470DCF820702F43CCF897
:102F700020701027E760DCF828703D42FBD0C8F8CD
:102F800028500144C8F8205002441B1AC2E700BF71
:102F900000000E4018000E4000200E4000F8FFFF19
:102FA00000200E441FB58A07034608460DD01C6852
:102FB00019681A681B68CDE90041CDE9022369460A
:102FC000102200F08DF904B010BD0091009A1C6829
:102FD000186819681B68C2E90040C2E90213F2E7E9
:102FE0001FB58A0704460DD01022684600F078F914
:102FF000009B2360019B2360029B2360039B236053
:1030000004B010BD0091009BD3E90001D3E9022375
:10301000206021602260F2E700F1424303F5801353
:10302000102A30B54FEA43131AD101221A60D1E9B0
:103030000054D1E90223C0F81051C0F81041C0F883
:103040001021C0F81031D1E90454D1E90623C0F8A9
:103050001051C0F81041C0F81021C0F8103130BD37
:1030600000221A60D1E90054D1E90223456244628A
:1030700042624362F3E730B511F0030F89B00546B1
:1030800014460DD0082A0CBF10222022684600F0FA
:1030900027F9224669462846FFF7BEFF09B030BD32
:1030A0000091009909B0BDE83040FFF7B5BF242278
:1030B000002100F023B970B515460E4624220021E8
:1030C000044600F01BF9C02D0DD0B5F5807F01D06E
:1030D000802D0BD12046EA0840F8045B314600F011
:1030E000FFF8002070BD6FF07100FBE76FF01F006C
:1030F000F8E72DE9F04F2DED028B85B008EE903A00
:1031000001908B46164652B11568019B1B68802BB7
:1031100003D0B3F5807F40F0A98000270DE015466D
:10312000F3E7B5B1119B109ADB5D525D5340129AE3
:103130000135D35505F00F0501375F45F1D3002E5A
:1031400000F097803560002005B0BDEC028BBDE833
:10315000F08F00F091F84FF440434560036004465F
:10316000FFF7C0FD019951F8043B802B0CBF0822EA
:10317000102280462046FFF77EFF04F184031846A4
:1031800018EE901A08EE103AFFF72AFF4046FFF7B4
:10319000ADFD119BABEB070803EB0709129B28F071
:1031A0000F0803EB070A09EB080291451DD1119B9B
:1031B000B84403EB0809129B9844119B052203EBCA
:1031C0000B0A0323D14531D1FFF78CFD18EE901A7D
:1031D000074618EE100AFFF7E5FE3846FFF786FDB2
:1031E000204600F053F85F46A7E74823A360052375
:1031F000A36023699907FCD40323A3600392FFF71C
:1032000071FD4946029004F1A000FFF7E9FE514626
:1032100004F18000FFF7C6FE029B1846FFF766FD2B
:1032200009F11009039A0AF1100ABEE79DB9482175
:10323000A160A26021698A07FCD4A360FFF752FD58
:103240001099074604F18000FFF7ACFE3846FFF7FF
:103250004DFD05220323109819F8011B405D01352F
:10326000414008F8011B05F00F05ABE76FF02000A7
:103270006AE7304668E70000024B03480122C3F8C2
:10328000002670470010C84300000F40094B9842C9
:103290000ED003F58063984209D10122064B03EB5F
:1032A000C2035A68054B13449B0000221A60704702
:1032B0000022F3E700000F401C35E10F8005F210FB
:1032C00010B501390244904201D1002005E0037895
:1032D00011F8014FA34201D0181B10BD0130F2E7D5
:1032E0000A44914200F1FF3300D1704710B511F844
:1032F000014B03F8014F9142F9D110BD024403463E
:10330000934200D1704703F8011BF9E7F8B500BFFD
:10331000F8BC08BC9E467047F8B500BFF8BC08BCB6
:103320009E467047B814B6F1E0CFF3ADB7DD25C9BE
:10333000FA79B7130000000007B0CD5E010000006D
:1033400002000002382D0000000000000000100004
:10335000F0000100E10BE10FE50BE10FD90AE10FED
:103360007D0DE10FAF0DE10FA434E10FE90DE10F89
:10337000570EE10F0000000013B779FAC925DDB739
:10338000ADF3CFE0F1B614B8010100000000000079
:10339000342D000040000000020000020000000088
:1033A000000000000000000000000000000000001D
:1033B00000000000000000002000000000010000EC
:1033C000050C0000FFFFFFFFFFFFFFFFFFFFFFFFF8
:1033D00000000000000000000000000001000000EC
:1033E000FFFFFFFF512563FCC2CAB9F3849E17A7F4
:1033F000ADFAE6BCFFFFFFFFFFFFFFFF000000008C
:10340000FFFFFFFF96C298D84539A1F4A033EB2DFA
:10341000817D0377F240A463E5E6BCF847422CE1E6
:10342000F2D1176BF551BF376840B6CBCE5E316B2A
:103430005733CE2B169E0F7C4AEBE78E9B7F1AFEEE
:10344000E242E34F6A09E667BB67AE853C6EF37202
:10345000A54FF53A510E527F9B05688C1F83D9AB5F
:103460005BE0CD19800000000000000000000000BB
:10347000000000000000000000000000000000004C
:10348000000000000000000000000000000000003C
:10349000000000000000000000000000000000002C
:1034A00000000000000100003D2AE10F4928E10F63
:1034B0008128E10FDD29E10F192AE10FB727E10F7C
:1034C0009D27E10FC727E10F812AE10FF728E10FC0
:1034D0005529E10F812BE10F912BE10FBD2BE10F5E
:1034E000012CE10FFB2BE10F454652333200000067
:1034F000010203002800000028000000000800006E
:1035000000001000E834E10F02000000010000009C
:1035100001000000004008000000070000000F400C
:0C3520000000000000040F40010000004B
:08352C003109E10F0D09E10F67
:040000050FE10951AD
:00000001FF
