:1040000000000120197F0000157F0000157F0000CF
:104010008B700000157F0000157F0000157F0000E9
:10402000157F0000157F0000157F0000157F000040
:10403000157F0000157F0000157F0000157F000030
:10404000157F0000157F0000157F0000157F000020
:10405000157F0000157F0000157F0000157F000010
:10406000157F0000157F0000157F0000157F000000
:10407000157F0000157F0000157F0000157F0000F0
:10408000157F0000157F0000157F0000157F0000E0
:10409000157F0000157F0000157F0000157F0000D0
:1040A000157F0000157F0000157F0000157F0000C0
:1040B000157F0000157F0000157F00001DD4000053
:1040C000BDD30000B9D300001DCB000019D40000FF
:1040D000C1D30000E1D30000C5D3000065B80000E3
:1040E00059D40000157F0000157F0000157F0000E7
:1040F000157F0000157F0000157F0000157F000070
:10410000157F0000157F0000157F0000157F00005F
:10411000157F0000157F0000157F0000157F00004F
:10412000157F0000157F0000157F0000157F00003F
:10413000157F000010B5054C237833B9044B13B13B
:10414000044800E000BF0123237010BD20010020BF
:10415000000000005805010008B5034B1BB10349DE
:10416000034800E000BF08BD00000000240100205B
:1041700058050100154B002B08BF134B9D46A3F5B6
:10418000803A00218B460F461348144A121A09F050
:104190005CFF0F4B002B00D098470E4B002B00D03C
:1041A00098470020002104000D000D48002802D08F
:1041B0000C4800E000BF09F019FF2000290003F0BF
:1041C00057F809F0FFFE00BF0000080000000120C2
:1041D000000000000000000020010020981C0020CA
:1041E000000000000000000037B50446684680E883
:1041F0000600251D03C885E805002373069B23617F
:10420000BDF81C30A38200232360084B1A6812B942
:104210001C6004E00A4611680029FBD114609888EC
:10422000013080B2988003B030BD00BF400700204D
:1042300007B50379054A0193036806CA009308305D
:104240000223FFF7D1FF03B05DF804FB08E4000090
:1042500070B528252B68ADF50C7DB3F5804F05D3DF
:104260004FF4017420460DF50C7D70BD1B6B002BC7
:10427000F6D05B6A4FF40B7201A900209847044600
:104280000028EFD140F201262B68B3F5804FE7D22A
:104290001B6BB3F5804FE3D29B6A002101A89847BE
:1042A000B042F1D040F20323984218BF0446D9E748
:1042B00041F671320F4B10B5D969DA639A680E4C2A
:1042C00022F44012A04288BF42F480129A600B4A46
:1042D0000B4CD2F81832A04223F0020388BF43F0FF
:1042E000020301F48031C2F8183211B10022014BEF
:1042F000DA6310BD00000340C017530200C007403E
:1043000080F0FA02094B0022996C30B5DC6C234630
:1043100042EA0104220C82701A0A210AC2701A0CA5
:104320001B0E047041700271437130BD0080E00FBC
:10433000202A0B681EBF4FF0FF3191408B43590874
:1043400001F055315B1A03F033319B0803F033332E
:104350000B44017803EB13130A444FF0013103F0CF
:104360000F334B43A2EB13630370704773B5002602
:10437000044602AD05F8016D011D1B222846FFF71A
:10438000D7FF60689DF80730B3EBD06F03D120F002
:10439000784002B070BD28461B2204F108018DF858
:1043A0000760FFF7C5FFA0689DF80730B3EBD06F3B
:1043B00001D1C043EBE74FF0FF30EAE74BF29A221E
:1043C000036810B5B2EB134F044611D19BB2012B19
:1043D0000ED1FFF7CBFF431C0AD04FF6FF72E06807
:1043E000030C93420AD180B2C01A18BF012010BD3D
:1043F000236801330CBF03200420F8E70220F6E70E
:1044000037B5054601F10C04436901A90122204694
:104410009847BDF8043002A941F8083D0122AB6974
:104420002046984703B030BD2DE9F043054689B0DA
:104430009946036908460E461746984704460028E1
:1044400067D1D9F804304FEA53285FEA580804F1DD
:10445000010366D199F8032099F802301203DB02B8
:1044600003F4006302F480521A43B9F80030640385
:10447000C3F30A03134404F460441C442B4B6FEA57
:104480000444039327F07843FF431B2202A901A8A9
:1044900002938DF80480FFF74BFF9DF80420029BE8
:1044A00008A843EAC26300F81D8D1B2201A927F06A
:1044B000784704930197FFF73BFF9DF80320019B8A
:1044C0006FEA144443EAC26305934FF0FF3308A92F
:1044D00041F8044D06930122AB6906F1100098479C
:1044E000AB690446012205A906F108009847AB69AB
:1044F000002818BF0446012204A9301D9847AB6963
:10450000002818BF0446012203A93046984750B935
:104510001CB131462846FFF773FF204609B0BDE8BD
:10452000F0831C4691E70446F3E700BF01009AB20E
:10453000036803F07F03012B03D8406820F07C4020
:104540007047072B8CBFD81F0020704741F671338E
:1045500070B51C4C0122E669E36341F20C03E250A2
:1045600002236061054623610021212006F4803684
:1045700009F02AFE18B90146212009F025FE42F271
:104580000C030122E2500EB10023E363431C02D06E
:1045900018B10D4800E00D4870BD0D4B9B680A3303
:1045A00003F01F020123934023F003032B44AB428B
:1045B00001D10020F0E755F8042B0132F7D005486F
:1045C000EAE700BF0000034024E000F021E000F033
:1045D0000080E00F0EE000F07047000041F67132FD
:1045E000044B0121DA6342F20C0299500022DA6393
:1045F000704700BF0000034041F67132034B0121B8
:10460000DA6342F20C020020995070470000034028
:104610002DE9F0418646406800283BD0DEF8007066
:10462000904600243E4657F834500134C5F3130C2D
:10463000013501D0614532D0844206F10806F2D13D
:104640003868013031D0002507F1080606E057F838
:1046500035203046013206F1080627D00135A54243
:10466000F5D1032B16D0DEF800703868C0F3075080
:10467000032823D0002407F1080608E057F8340087
:10468000B446C0F30750032806F1080617D00134DA
:10469000A542F3D101238EF80830BDE8F08141EA4C
:1046A0000351C6E90018BDE8F0813846C1F3130193
:1046B00041EA0353C0E90038BDE8F081BC46C1F3CC
:1046C000130141EA0353CCE90038BDE8F08100232F
:1046D0004FF0FF3230B544689C4202D10023037290
:1046E00030BD016801EBC30541F833206A60013336
:1046F000F2E70000EFF3108272B6034B1A60036812
:104700000846DB68184700BFDC0D002070B50025A7
:10471000044686B00562E369AB4202D8206A06B05F
:1047200070BD666C2068E36B05225B6901A906FB1E
:104730000500984701A8FFF741FE012898BF236AAA
:1047400005F101059CBF01332362E4E7F7B5074695
:104750000E460D467B6C86EA05045B421C40A5EBC9
:10476000060001D003B0F0BDFB6B01225B6901A91B
:1047700028469847019B013301D10435EAE72046DA
:10478000F0E7F0B5002504462E4687B0E369B34252
:1047900002D8284607B0F0BD2368676C052207FBE6
:1047A0000637E36B01A95B693846984701A8FFF714
:1047B00005FE012809D807F114012046FFF7C6FFBE
:1047C000636C143B834208BF01350136DEE7F0B568
:1047D000046806460C1B416C0025B4FBF1F487B05D
:1047E000F36930685A1E9542776C06D3716C306855
:1047F00001FB0400143007B0F0BD0134B4FBF3F149
:1048000003FB1144F36B05225B6901A907FB04005C
:10481000984701A8FFF7D2FD0128E7D90135DFE766
:104820002DE9F04F144607460E469946C36B89B0F2
:104830005B69012205A96068DDF848809847FB6B39
:1048400001225B6904A930469847059B5A1C06D192
:104850000020A360A075607509B0BDE8F08F01214C
:104860004FF0000EA175217E049A04EBC101CE61C8
:10487000A1F820E0606802F07F05B042C2F3D31CCB
:10488000E9B20CD14FF0FF33C4F800C02175A3602A
:10489000237D043B022B20D80020A075DCE7206894
:1048A00003F07F036045207D18BF84F816E088423E
:1048B0001CBF0020A075012B8CBF00200120012906
:1048C0008CBF0021012188421CBF0021A175012D50
:1048D00000F2D280012BDBD9D1E002F07F02012A65
:1048E0000FD8FB6B02225B6906A93046984706A8E1
:1048F000FFF71EFE237D032B69D8DFE803F0636317
:10490000040904A8F4E7CC21227E04EBC20211843E
:10491000684AD35C049D88F8003005F07F02012AC4
:1049200088BF0025237E98BFC5F3C16504EBC30390
:10493000012A83F82250B3F820A000F2A380FB6B79
:1049400002225B6906A93046984700230DF1200B2F
:104950000BF8113D202206A95846FFF7E9FC1A2260
:1049600007A9FFF7E5FC9DF80F30079AB3EB926FAC
:104970000CBF0123002308226375637D03B9A3756F
:10498000A37D9BB1BAF1000F15D07B6CB0185942D2
:1049900086EA000C1CEA010F1CBF0021A175591EFC
:1049A00001405B1A9A4584BF0023A37594F816B0A2
:1049B000BBF1000F30D095B9E37D002B75D14FF0DE
:1049C000000B16E0227E04EBC2021084A0E7227ED8
:1049D000062B04EBC20210849AD901239AE7012323
:1049E00094F819B0E375BBF1000F24D19D4228D192
:1049F00065762AF00300304410441AF0030F7B6CF4
:104A000018BF04305B4286EA0002134203D03146ED
:104A10003846FFF7DCFEA060A27D12B12369534443
:104A20002361237E012B0ED801332376B9F1000FC9
:104A30000CD1A07D10E7012D37D0032D08BFA37640
:104A4000BDE79B46D5E70023A375F2E7002AF0D027
:104A5000E37D002BEDD0BBF1000FEAD1032DE8D0B0
:104A6000A1684B1CE5D0CDF80080012322463846D2
:104A7000FFF7D6FEA075DCE7012B3FF609AF002358
:104A8000A37505E700231B2204A906A88DF818309A
:104A9000FFF74EFC9DF81830049AB3EBD26F0CBFB1
:104AA000012300230422637567E7A27D4FF0010B09
:104AB000B4E700BF0AE2000013B50C4600210093E2
:104AC0002176134661682246FFF7AAFE18B1E37DFE
:104AD00003B1A07EA075A07D02B010BDF0B5054663
:104AE000002687B0EC69013CB44203D80C4620464E
:104AF00007B0F0BD01B14C1E6F6C2868EB6B05224E
:104B00005B6901A907FB0400984701A8FFF756FC61
:104B10000128ECD901362146E4E7F0B504460D46FC
:104B2000466CE36B006887B05B69052201A906FB50
:104B30000500984701A8FFF741FC012804D801A807
:104B4000FFF714FC07B0F0BD29462046FFF7C6FF6B
:104B50000646676C2068E36B05225B6901A907FBC9
:104B60000600984701A8FFF701FC431CEAD0B542B4
:104B700038BF0130E6E74369416CDA1D1439B2FBF6
:104B8000F1F28069013203EBC202043000EB420013
:104B9000DA1CB2FBF1F203EBC2030333B3FBF1F314
:104BA000023301FB03007047214BD3F8F821024088
:104BB0001CD1F0B4D3F8FC5103F5FC74641BA410B1
:104BC000022CD3F8006212D0032C29D0012C1AD069
:104BD000184C05F10C026468C5E90040C3F8FC21DB
:104BE000A96033680C333360F0BC7047704704220F
:104BF000104C6468686098182C601960C3F8FC0158
:104C00003260F0BC70471A4608240A4F7F682F6054
:104C100042F8080B5960C3F8FC213460F0BC7047BF
:104C2000044C6468A960C5E90040C3F8FC31E7E7BB
:104C300098150020001000E0837DDB0701D5808AF5
:104C40007047D0E901239B1A44BF828A9B1898B20F
:104C500070470000044B5A6D22B95865A3F85810EC
:104C60000120704700207047E00600200A20D0B5E0
:104C70000B4CE38C584308F009FF0646A08C0F4606
:104C800008F004FF0022074B08F06AFF02460B46BB
:104C90003046394609F08EF809F074F92083D0BD0A
:104CA000E00600200000F43F40F2E243074A10B55E
:104CB0001468584303FB0141536800F5807001EB11
:104CC000500118441160506010BD00BFE006002084
:104CD0000022134670B58AB0D910415C03F0070476
:104CE0002141CC0742BF0AA9891801F8283C03F1E9
:104CF000010348BF0132252BEED100230D4DD91001
:104D0000415C03F007042141C90707D5E91881F880
:104D10002A300133252BF2D10AB070BD93FBF2F19A
:104D200002FB11310AAE314411F8286CEC1884F8FA
:104D30002A60EEE7E0060020024BD86880B28002CD
:104D4000704700BF0080E00F0C4B10B50C4CE41A0C
:104D50000C4B1C4424F4FF5424F01F04FFF7ECFF19
:104D6000A04202D80024204610BD2046FFF726FBB3
:104D70000128F8D904F50054F0E700BF1000002026
:104D800020010020A32501007FB502466D460D4B92
:104D900003F110062C4618685968083303C4B3425F
:104DA0002546F7D1531E04A90F3211F8014D13F80F
:104DB000010F844204D19342F7D1012004B070BDA9
:104DC0000020FBE7D8E1000070B5154D286810BB46
:104DD000144B154CE41A154B1C4424F4FF5424F0D6
:104DE0001F04FFF7A9FF844214D2666BA6B1FFF738
:104DF000A3FF864210D2FFF79FFF06F140038342D4
:104E00000AD83046FFF7C0FF30B1F36933F008032A
:104E100002D02C60286870BD04F50054E1E700BFA3
:104E2000A00100201000002020010020A325010087
:104E3000BFF34F8F0549064BCA6802F4E062134383
:104E4000CB60BFF34F8F00BFFDE700BF00ED00E078
:104E50000400FA0528231B68B3F5804F05D21B6BAD
:104E6000B3F5804F01D2DB6B184740F20110704759
:104E700028231B68B3F5804F05D21B6BB3F5804F19
:104E800001D29B6B184740F20110704728231B6822
:104E9000B3F5804F03D21968064A914203D000232C
:104EA000037083607047012202709A689B694260B8
:104EB000F7E700BF07B0CD5E10B50C4630B9044827
:104EC000FFF7E4FF034B23600423A380002010BD01
:104ED000FC0100200002002010B508B3114B1A6835
:104EE000918881421CD399880024814281BF01218D
:104EF000126899809A6099889A682AB904B19A6070
:104F00004FF6FF71998009E0884204D001311268A0
:104F100089B20124F1E70CB198809A60104610BD67
:104F20000022FBE74807002037B50D461446FFF77F
:104F3000D3FFD8B10369828A63B14FF6FE718A420A
:104F400008D1002069460090ADF80400984738B1B8
:104F500003B030BD2B602280286848B92080F7E775
:104F6000009B2B60BDF804302380F5E70120EFE7BC
:104F70000020EDE737B50D461446FFF7ADFF70B1E1
:104F8000036973B14FF6FE72818A914209D100958F
:104F9000ADF8044069460120984703B030BD0120B8
:104FA000FBE70E20F9E70000174B9868C0F30440B8
:104FB0000C2826D8DFE800F0092525252525071B24
:104FC0001D251F212300114870479B6803F0407383
:104FD000B3F1807F07D0B3F1007F06D00C4A002BDD
:104FE00008BF104670470B4870470B4870470B4886
:104FF00070470B4870470B4870470B4870470B4889
:1050000070470020704700BF0040014A405DC60065
:1050100000093D0080841E0040420F000024F4007F
:10502000C0EA210180BA8C010048E801005A6202FE
:10503000104B10B5D3F82031044603F00703013BB1
:10504000032B14D8DFE803F002090C1004230A48EC
:1050500004B1206001B10B7010BD03230748F7E7CE
:10506000FFF7A2FF0523F3E702230548F0E700233B
:105070001846EDE700800040C0EA210100F0490237
:10508000002D310137B504460379124A03330193E9
:1050900000F14403009306CA02231430FFF7A4F87A
:1050A000228A237A0192E26804F12C00009294E8AB
:1050B0000600FFF799F80546237AA4F8450084F81E
:1050C00044302279216804F1470008F0B3FF2846F4
:1050D00003B030BD00E4000070B50E4C0E4B04F17F
:1050E000100206460D4692E8030083E803001846C6
:1050F000FFF79EF80222094B18341A7294E8030055
:10510000DE6083E803001D821846BDE87040FFF7AB
:10511000B9BF00BFD8E100003015002028050020ED
:1051200010B5044644EA010313F00303084609D10D
:10513000934201D1002010BD54F8231040F82310F1
:105140000133F5E79200214608F074FFF2E72DE9FC
:10515000F041054616468846FFF76EFDAB8A181AE1
:1051600080B2864228BF064637465FB93EB1D5E9D0
:1051700001329A4202BFAB7D43F00103AB7530466A
:10518000BDE8F081AB8A2C68A8681C44241AA3B23D
:10519000BB428CBF3C46A4B22246414608F04AFFBF
:1051A000AB682968AA8A23440A44A0449342A7EB27
:1051B0000404AB60A7B228BFA960D6E770B5044667
:1051C00015461E4611B3FFF737FDA38A181A80B2A1
:1051D000012829D9E37D63B1E368628A1A70120A53
:1051E00007D02068A18A013301448B4228BF0346BF
:1051F000F4E700236382A3680222E36004F1120152
:105200002046FFF7A4FFE37D0133E37532462946CC
:105210002046FFF79CFF638A03446382E37D13B952
:10522000238A0344238270BD0020FCE72DE9F0416E
:10523000164605468846FFF7FFFC864228BF06460D
:10524000B6B237464FB92EB1AB7DDA0744BF23F073
:105250000103AB753046BDE8F081AB8A2C68696804
:105260001C44641AA3B2BB428CBF3C46A4B2224683
:10527000404608F0DFFE6B682968AA8A23440A4486
:10528000A0449342A7EB04046B60A7B228BF6960F7
:10529000D8E770B51E46038A04461546EBB9C27DB1
:1052A000DAB10123013A0B70C27500F1100102223C
:1052B000FFF7BCFFE37D9BB1228A2946B24228BF9B
:1052C00032462046FFF7B2FF238A1B1A2382E37D72
:1052D00013B9638A1B1A638270BD00230B70EBE75E
:1052E000638A2382E8E7000070B50D46A8B9FFF78E
:1052F0006BFD446BFFF768FD58B12346084C03F182
:105300004006224618685968083303C2B34214465F
:10531000F7D1044B2B600423AB80002070BD00BF8D
:10532000A4010020C401002038B5202204460D4607
:105330000C30002108F089FE00234FF0FF32A375E6
:10534000C4E90025A260E3756376A376237638BDB1
:105350002DE9F04F0E4600258BB004464FF0FF318B
:105360001046C6F3130917469A468DF81350FFF7F7
:10537000DBFF4E456BD12B46E1688B420DD0A26816
:1053800002EBC30052F83320551C0DD0C2F31302B8
:10539000914509D141684D1C08D1237C002B58D17F
:1053A00047480BB0BDE8F08F0133E6E73846FFF71A
:1053B000BBFF0DF11303012239462046FFF77CFBAA
:1053C0000028EAD09DF813308AF800300020E8E782
:1053D0002368ED1A636CB5FBF3F542E04046FFF736
:1053E000A3FF0DF11303029A41462046FFF764FB29
:1053F0008646D8B1B11C03D0D8F80030B34215D1DD
:105400009DF813302F4A8AF800303B4602F1280BF2
:105410009446BCE80300DC4518605960624603F11D
:105420000803F5D1F346DCF800001860D8F808103E
:1054300032E0BBF1000FB3D04E45C7D19AF800302F
:105440007A68314604F10800FFF7E2F8BEE7B31CC2
:10545000A3D1E56A681CBBD1616A2046FFF73EFB19
:105460000546B31C18BF0123DFF858800293636A16
:10547000626C0393236805A902FB053BE36B0522DD
:105480005B695846984705A8FEF798FF0BF114038F
:1054900019464FF0000B01934A1C05D0636C019A2A
:1054A0005B424A40134299D029462046FFF716FB3B
:1054B000039BAB42BDD0BBF1000FBDD10546D6E783
:1054C0000BE000F0F80E00202DE9F04F4FF0FF3315
:1054D000002589464FF6FF71044600F1080687B0A3
:1054E000C0E90913C362056205633046FFF7EFF8B0
:1054F0002046FFF70BF900285BD14FF6FF7BD4F86D
:1055000024800027D84514BF45460025E3699F4203
:1055100052D32046FFF7FAF8002833D1B34D204686
:10552000FFF72FF923E12368E26B606C576901A94B
:10553000052200FB0530B84701A8FEF73FFF012810
:10554000074603D0C31EDBB2012B12D829462046E2
:10555000FFF7E3FA0246012F2168676C08BF0132AA
:10556000434607FB0511E06BFEF75EFF2046FFF7A1
:10557000CDF80135E3699D42D5D32046FFF7C6F843
:105580000028BAD000254FF0FF384FF6FF73C14610
:105590002F46C4E90853E3699F423ED3A5EB0805B3
:1055A000012D5DD84FF6FF72636A93426DD1904D25
:1055B000B5E704F14008DDE7636CE26B2068D2F8E0
:1055C00014C001A9052203FB0500E04701A8FEF76E
:1055D000F5FE02280FD0D84515D109F10102606C03
:1055E000216804F1400300FB0511E06BFEF71CFF8E
:1055F0002046FFF78BF8E3690135B5FBF3F201377D
:1056000003FB125582E729462046FFF786FAB0F1E0
:10561000FF3F08BF4846421CE1E7636CE26B20682D
:10562000D2F814C001A9052203FB0700E04701A836
:10563000FEF7C4FE824601A8FEF798FEBAF1010FFC
:105640000CD8484538BF6762804528BF80468542F0
:1056500038BF05468146236A0133236201379AE742
:105660004FF6FF7300256362E3699D429AD2676C2F
:105670002068E36B05225B6901A907FB05009847D9
:1056800001A8FEF773FE0135EEE7E26B676C206858
:10569000556901A9052207FB0300A84701A8FEF7E9
:1056A00065FE616C2268636A524D01FB032314336B
:1056B000A3624FF0FF332A46E3626FF001010DF160
:1056C00003032046FFF744FE002854D1AB68E36291
:1056D000E56A20462946FFF739F8206320B9E16AD8
:1056E0002046FFF774F8E06229462046FFF76FF87E
:1056F0000546A36A9D4240D16369656C2046A5F1C9
:105700001402DD1CB5FBF2F503EBC5050335B5FB53
:10571000F2F5FFF736F8AB1C984281463FD2616A3A
:105720002046FFF7DBF901268046033504F1400AE5
:10573000731E994512D82368676C052207FB08374A
:10574000E36B01A95B693846984701A8FEF70EFE96
:10575000534602463946E06BFEF766FE4146204658
:10576000FFF7BCF90136B5428046E1D1224D28460B
:1057700007B0BDE8F08FA36AA9E729462046FEF7E7
:10578000E5FF236B29460344074623632046FFF7C2
:105790001EF80546002FACD1C4E90B07A9E7304637
:1057A000FEF795FF154DA16AE36A994201D04B1CA3
:1057B00001D10025B3E62846FFF7B6FD0DF103033E
:1057C000012229462046FFF777F930B1D5E90012CA
:1057D0009DF803303046FEF71BFFA9684A1CE3D151
:1057E00069682046FEF7F3FF0146DDE703E000F0BD
:1057F00016E000F0CC0E002013E000F0240F002093
:105800002DE9F04F354C85B0E369019003F4803306
:10581000029341F671334FEA820BE363012241F2B6
:105820000C038A46074689465E46E2500EB930466A
:105830002FE007F5005525F4FF5525F01F0567619A
:10584000ED1BE269B54228BF3546520735D4D9F879
:10585000001009F10402A161A5F10408B8F1000FDC
:105860000ED1042241462261212008F0ADFC80B90E
:10587000212008F0A9FC60B92F44A944761BD5E784
:1058800008210846039208F09FFC039A78B104238C
:10589000236142F20C020121104B9950029A0AB185
:1058A0000022DA63431C0BD070B10D4809E052F8B6
:1058B000041BA8F10408A161D0E74FF0FF30E8E72E
:1058C000084805B0BDE8F08F5A465146019808F0E7
:1058D000CDFB0028044808BF0020F2E70000034089
:1058E00024E000F021E000F010E000F02DE9F043AA
:1058F00085B088466946044681E80C000C9EBDF8D8
:105900003470FFF7E9FA4FF6FE7905460DB14445CC
:1059100005D94FF6FF74204605B0BDE8F0832B7A19
:105920009DF804209A421ED10099686808F09EFBF9
:10593000C8B9002EEFD02B69AA8AA3B14A4509D174
:105940000290ADF80C0002A9984760B9029BBDF81F
:105950000C2043B1974206D13A461946304608F02A
:1059600085FB0028D7D001342D68A4B2CEE7000013
:10597000F0B5354C87B011464FF486701F46164679
:10598000FFF712F9236925462BB94FF48370FFF70F
:105990000BF907B0F0BD002F08BF082E21D101AAD6
:1059A0000321206802F0A0FE636860615B7A04F165
:1059B000180123769DF804300220DA1F5342534128
:1059C000627E63F30002039B6276E361BDF80630FA
:1059D00063832369984701220021206802F08CFE2E
:1059E000D7E7002F08BFB6F5000F03D10021012033
:1059F0009847CEE7002306F4A042134309D04FF4A2
:105A000080714FF48170FFF7CFF8236900210320E4
:105A1000EEE7002306F4A062134308D001214FF4FF
:105A20008170FFF7C1F82B690021FF20E0E7002318
:105A300006F02052134319BF012140F201103146F4
:105A40004FF48370EDE700BF581300201FB5022309
:105A50008DF80630064B5A8B59690332ADF8042095
:105A600018686A4602F044FE009805B05DF804FB31
:105A70005813002008B500214FF48570FFF794F803
:105A80000022044B03211A6118680122BDE8084076
:105A900002F0ECBA5813002013B50D4B01281B88F7
:105AA0000C4CADF80430ADF8003002BF02238DF885
:105AB0000430042301A9206808BF8DF8003002F0EB
:105AC00073FD6946206802F087FD02B010BD00BF7B
:105AD000F8E100005813002037B50022114C437A3A
:105AE00000926060D0E90021206802F071FE238CF2
:105AF000DB050CD563680C4D1A7A2978914206D0E3
:105B0000012A06D0022A08D063681B7A2B7003B0E2
:105B100030BD206802F032FEF6E7206802F034FE65
:105B2000F2E700BF581300203D070020F0B51A4CE3
:105B300085B0637A18480133DBB2272B88BF252351
:105B40006372FFF7C9FFE768657C627D134C1449F7
:105B50004FF400730232206802F0A5FD6368114A19
:105B60005B7A05F001052846D65CFFF795FF002219
:105B7000012300928DF80C30314602AB2068029769
:105B800002F078FA28B1FFF775FFFFF7CFFF05B0F5
:105B9000F0BD054B2361FAE73C01002058130020BB
:105BA00050010020D5E300002567000038B50D4600
:105BB00011462C680144A41A224608F066FA2C60AB
:105BC00038BD00002DE9F0470C464849484B0D68A8
:105BD0009246471B4748484A1B1A484817600344E7
:105BE00023F4FF5323F01F039F428846914676D348
:105BF00055443D44FFF7A8F808B9FFF79DF88542E2
:105C000070D8D8F800000AEB0005B5F5806F03D90D
:105C100082223B4B1A7060E03A4E52462146304495
:105C200008F008FA384BC8F800501A681AB9332D32
:105C300053D9726B1A601B687C199F421DD8A3420E
:105C40001BD203F11002A24247D8DB1B1E4433468D
:105C50002E4A06F1100153F8040B8B4242F8040B54
:105C6000F9D12A48FFF790F810B9254B8422D1E7E3
:105C70001022FF21304608F0E8F9254E05F0030513
:105C800024483368641B044053B93840C0F50051C0
:105C90002144FFF7DFF8346040B1194B8522B9E7A2
:105CA0009C4203D9E11A03F50050F2E7D8F800202E
:105CB0001449521BD9F80000FFF7DAF80446D8F867
:105CC0000020D9F80030521B134408490D48C9F888
:105CD0000030FFF76BFF002CDFD1BDE8F087084BE9
:105CE000872297E7064B832294E700BF50130020DA
:105CF0002001002010000020880B0020A3250100B7
:105D0000850B0020500F0020140E0020040E0020F0
:105D10005413002000E0FFFFEFF3108072B67047CD
:105D2000054B5B69C3F38512827003F03F021B0BC6
:105D300042700370704700BF00C0074007B50146BE
:105D400001A8FFF7EDFF9DF8063001220B804FF40C
:105D5000807300204B80054B9B680A3303F01F03C0
:105D600002FA03F34B6003B05DF804FB0080E00F20
:105D7000F0B54AB1012530241D4E8D4004FB00646E
:105D80000BB341F21006A55130244443072904F116
:105D9000804404F5703419D80F2765688E00B74029
:105DA00025EA070502FA06F63543656052B9012275
:105DB00002FA01F130220E4C02FB0040A3B141F285
:105DC0001003C150F0BD42F21006DCE70F2701F1CD
:105DD0008045083DE668AD00AF4026EA070602FAB6
:105DE00005F53543E560E1E742F21003E9E700BF5E
:105DF00000C00340EFF3108072B6704700B962B67E
:105E00007047000010B5034CA01DFEF761FF002392
:105E1000236010BDE40D002010B5094CB4F8071044
:105E2000A079FEF741FFA368B4F80D10054AC3F34B
:105E30000F239384D184FEF719FF0023236010BD44
:105E4000E40D0020E0060020034B044A9979117507
:105E500000221A60704700BFE40D0020E006002019
:105E6000FFF7CCBF08B5C36800209847024B1868FD
:105E7000BDE80840FFF7C2BFDC0D00202DE9F04F60
:105E8000B94F87B03B7806468946019203F0FF0B75
:105E9000002B37D1FEF758FF8246FEF74DFFBAF1CF
:105EA000000F00F00C81B14BA0F50055D3F8008035
:105EB000C3F800B0AE4BA5EB0A0593F834101C46AE
:105EC00000297BD01A68924540F0F9805A689542C3
:105ED00040F0F5809968A74A914240F0F080DA6876
:105EE000062A40F0EC8040F26C725969914240F011
:105EF000E680D96BA04A914240F0E180C3F818B027
:105F000001233B709A4C94F83430002B00F0D7807A
:105F10009A4D012104F13C0046F48028FEF7EAFB8B
:105F200004AB2A4641462046FFF712FA07460028EE
:105F300040F0CC809DF81030032B00F0C780022B7E
:105F400000F0C7802E69E06BFFF78CFF002F40F058
:105F5000B680019B1B78B342C0F0B18094F8343016
:105F60000093002B00F0AB8001218548FEF7C2FBB7
:105F70000DF10B03814A41467D48FFF7E9F90746D9
:105F800080B99DF80B30012B40F004812B69B3429E
:105F900040F00681B346D5F804A0E36BBBF1000FD7
:105FA00040F09980E06BFFF75DFF002F40F08780A5
:105FB000019B1E70009807B0BDE8F08F402203F1EE
:105FC0001000D3F838B008F040F840F26C73636109
:105FD000684B04F10800A3600623E360C4F838B0FE
:105FE000C4E900A5FEF773FB634B04F14000E363D3
:105FF000FFF7A4FE002867D1626C002A64D06368B2
:10600000B3FBF2F3E36194F84330002B57D0656C97
:10601000002D54D0E369002B51D02268B2FBF5F378
:1060200005FB1323002B4AD1D4F804A0BAFBF5F3E7
:1060300005FB13A3002B42D14D48FEF79CFD824582
:106040003DD340F634726369CC3B934237D8B5F503
:10605000007F34D303214A48FEF74CFBD4E900010A
:10606000E36B1B6898470546E36B0220DB689847A3
:10607000D5B941463E48FFF727FA424B05469842BC
:1060800004D141463A48FFF71FFA054665B9636CEB
:106090003748A3F11408236A03FB08F8FEF76BFDE9
:1060A000394B804538BF1D46B5FA85F3E06B5B0977
:1060B00084F83430FFF7D6FE002D3FF421AF0023E3
:1060C000019A0093137075E700239BE700262F4F7A
:1060D00039E7042637E75B69012203A95046984750
:1060E0002649039B0968C3F3D312914250D103F0B0
:1060F0007F03012B2BD903A8FEF71AFA4FF00408EF
:10610000584528BF58468208D0440546ABEB000BE3
:106110000AD0E36B49465B694046984725F0030384
:10612000984405F0030599445DB1E36B01225B6976
:1061300004A94046984748462A4604A907F07AFF32
:10614000A94451460A48FEF742FB824625E7E36B25
:1061500002225B6904A95046984704A8FEF7E8F9B3
:106160004FF00808CCE700BF480E00201C040020B8
:10617000500E0020180E0020B8E30000A00E0020F2
:106180008C0E002013E000F002E000F00BE000F0C5
:10619000044F07E7044F054A022B08BF174601E7E3
:1061A000034FFFE622E000F00BE000F00CE000F00F
:1061B00011E000F02DE9F04106460D4614460C4F63
:1061C0000CB9BDE8F081EFF3108872B623462A4679
:1061D00031463846FEF7F2FF03464046FFF70EFE13
:1061E000002BEDD0E41AA4B21D440026E8E700BF5E
:1061F000C00C0020002313B501F1080421461A4603
:10620000ADF80430ADF80600083151F8100C70B943
:106210000BB1ADF80420042201200DEB020108347B
:10622000FFF7C8FF54F8101C39B902B010BD51F87F
:106230000C3C1A4492B20123E6E734F80C2C0020FF
:10624000EDE700007FB500230130CDE90433064BB4
:10625000CDE901016946042000930392FFF7CAFFCC
:1062600007B05DF804FB00BFEA0100202822136894
:1062700010B5B3F5804F0ED2EFF3108072B6002444
:1062800007490B780C70FFF7B9FD3BB1BDE8104032
:1062900013681B6A18474FF4817010BD1846FCE75D
:1062A000E00D002001282DE9F34740F03E818B8866
:1062B000012B40F03C810B681B7813BB9E4A9F4C1E
:1062C00013609F4A13609F4A13609F4A13609F4A5E
:1062D00013609F4A13709F4A13609F4A136022788D
:1062E000022A01D1FFF7C2FF0123237000249B4B38
:1062F0001C709B4B1C709B4B1C70204602B0BDE871
:10630000F087032B40F0FE80964BDFF830921C782C
:10631000002C4ED199F80030002B00F0E7808C4B18
:106320001B78082B40F08380834B1868984668B927
:1063300028252B68B3F5804F62D34FF4017041F2EA
:106340000804A0420CBF8624802432E010F003062B
:106350000EBF2646C6F10406F6B200EB060ABAF5F1
:10636000806F00F2C980804B3246FF211844794F7C
:1063700007F06BFE7D4A3B6812680AEB030191420D
:10638000C8F800A000F2BC806D4A15681D44554451
:10639000DFF8B8A125F4FF55DAF8000025F01F0555
:1063A00085420CD9291A00F50050FEF753FD20B1A3
:1063B0008524002389F800309FE7CAF8005028237D
:1063C0001B68B3F5804F18D21B6BB3F5804F14D206
:1063D0001D69654AD8F8003039680020A84705468D
:1063E0003B68D8F80020544913449E1B5E483E6029
:1063F000FFF7DCFB002D9BD0DAE74FF48175EFE768
:10640000FDF726FF00289AD12B680190B3F5804F45
:10641000CED21B6BB3F5804FCAD29B69012101A874
:1064200098470028C4D101224D4B1A70C1E7002BB8
:106430005ED04A4B1B78002B5CD0474E336843B983
:10644000414B10224A491868FEF712FD0028B0D0CF
:10645000AEE713F003021CBFC2F10402D2B29F18D0
:10646000B7F5806F48D84348FF21184407F0EDFD89
:10647000414A424B37609B1A414A1344314A23F444
:10648000FF53156823F01F03AB42904636D82F44C4
:10649000FEF75AFC08B9FEF74FFC874230D8336844
:1064A0002A4F1D4425F4FF55386825F01F05854205
:1064B00008D9291A00F50050FEF7CCFC00287FF41B
:1064C00077AF3D6032682B49D8F80000FEF7D0FC6A
:1064D0000546D8F8003032681F4913442548C8F8EB
:1064E0000030FFF763FB002DAAD061E7812460E74D
:1064F00084245EE780245CE782245AE7872458E7F7
:10650000832456E7042B14D1132302211D4C6370FE
:1065100020462170FEF79EFB1B4A1C4B1289053258
:106520009A801B4A1A6062789A710024E5E60D246D
:10653000E3E60624E1E600BF800B0020860B002086
:1065400090150020880B0020140E0020541300200A
:10655000E40100208C0B002050130020840B00204D
:10656000F1010020850B00208007002094150020F9
:10657000040E0020500F00201000002020010020F9
:10658000A3250100F80D0020E0060020E40D002006
:10659000216C000028231A6810B5B2F5804F0ED286
:1065A000EFF3108072B60124074A11781470FFF7D8
:1065B00025FC39B9BDE810401B68DB6918474FF46A
:1065C000817010BD0020FCE7E00D00200B4A08B5EB
:1065D000937E4FF0005443F0400393760022084B23
:1065E0001A70084B1B782BB1FFF7D4FF064B2360C2
:1065F000FEF71EFC2360FEF71BFC00BFE006002038
:106600003C070020F101002002020FF010B5134CEE
:10661000A37E5B0621D4FFF72DFA40F2E24225204B
:106620002168A38C02FB031294F84F102260A27A17
:106630000A4492FBF0F100FB11220A21A272228986
:1066400001322281626801FB03236360238B5A1E9F
:10665000228313B90820FFF7B9FF10BDE006002020
:106660002DE9FF41294C40F601002189FEF79CFAF3
:10667000A37E13F0400242D143F0010303F0FD0377
:1066800062F38203224AA376136823B12189928898
:10669000914200D19847A37A1E4F234493F82A30A1
:1066A0001D486375FFF718FAD4E900547B68640845
:1066B0005B7A1A4A2E1B012012F803806435FFF71B
:1066C000EBF900960026254401246A4641463346EC
:1066D000386802958DF804608DF80C608DF80D40D7
:1066E0008DF80E6001F0F0FC054622463146386810
:1066F00002F002F835B1FFF789FFFFF7B1FF04B0F0
:10670000BDE8F081064B3B61F9E700BFE0060020E1
:10671000E40D002058130020EC060020D5E3000013
:106720008968000002282DE9F0411FD002D8012815
:1067300007D0FEE7032800F09C80FF2800F0998036
:10674000F7E74D4C637C980707D5FFF793F9FFF700
:10675000EDF9637C6FF341036374637C990701D4A3
:10676000DA0764D4BDE8F041FFF7E0B94B784C6834
:10677000DB077ED5227802F00F07032F59D0052FB3
:1067800077D13E4904F108008B7B03F00103B3EBA2
:10679000D21F4CD10622083107F068FC8046002841
:1067A00045D1FFF767F9FFF751F9354D41460646E8
:1067B0005C22284607F049FCAB7E2F8343F0200380
:1067C000AB76627E237E012743EA0223AB84627F9D
:1067D000237F04F11E0043EA0223EB8494F8233064
:1067E000C3F3040385F84F3094F82330C3F3421306
:1067F00085F850301B232B85FEF76AFAD4F80E304B
:10680000E27CEB60A37C2E6043EA0223227D2F759D
:1068100043EA02432B6195F84F30607DAB72E18A09
:106820003944FEF741FAFFF71BFF164B1F70BDE816
:10683000F081124D04F10800AB7B03F00103B3EBD0
:10684000D21FF4D1062205F1080107F00FFC002841
:10685000EDD1094C4FF4007394F83D2004F13C0154
:106860000232286801F01FFF637C43F00203637467
:10687000DDE7FFF7FFF875E73C0100205813002023
:10688000E00600203C07002002282DE9F7430F46D0
:106890000BD003D8012800F0B281FEE7032800F0F6
:1068A000B681FF2800F0B381F7E748784E6810F012
:1068B0000104BA4D61D14FF0FF3140F60300FEF7FD
:1068C00073F92646AB7EB64C13F0200F12D0696DDB
:1068D0006FF34513AB76002900F09F80237895F87D
:1068E000582043F0030323706270A01C07F0A2FB42
:1068F00000236B65AB48FEF79FF9003018BF0120FD
:10690000AA7E237860F34102C2F30011AA7661F3F4
:106910008203C2F3C00262F3C30360F30413237063
:10692000218840F60200FEF73FF96278DFF898828E
:1069300002324FF400739A49D2B2D8F8000001F045
:10694000B2FEAB7E7C68D90709D56FF30003AB7646
:1069500000236B60FFF77AF82860FEF787F94EB1E5
:10696000237803F00303022B00F031816DD8012B53
:1069700000F02C8103B0BDE8F083318840F60300BD
:10698000FEF712F93378A97EC3F3001396F800805E
:1069900063F38201A976C8F3C003C1F300118B42EF
:1069A00006D108F00303022B05D019D8012B31D0F2
:1069B0000026344615E0A146767896B17A48848A56
:1069C000FEF73AF9201A80B2B9F1000F04D002287C
:1069D00092BF0020023880B286428CBF002401247E
:1069E0002646AB7EC8F38008C3F3C002904507D0AB
:1069F00082F0010262F3C303DBB243F02003AB7603
:106A0000002C3FF45FAFAB7E81F0010161F3041312
:106A1000AB7657E74FF00009CEE795F82830A21C77
:106A20000DF107015F48FEF734FCC0B258B19DF884
:106A30000730002B0CBF012202222378607062F322
:106A40000103237056E70122F7E7A378022B65D0F4
:106A500011D8002B4DD0012B38D0544A127822B1D6
:106A6000162B7FD0182B00F08C8007225048022173
:106A70000270437027E00C2B18D0142B56D0082B33
:106A8000EBD1B8F8201054F8035FC8B205EA000251
:106A9000474801F47F4142EA0105044609210023E9
:106AA00004F8011BC0F8015063600CE040484FF04F
:106AB000FF320370012382704370022203710023AE
:106AC0000621C2704371FEF7C5F853E7617A237A55
:106AD000384A43EA012393801346374943F8061B9B
:106AE00054F8031FC2F80610A2889A80A2799A71FE
:106AF00040E7627B237B2F4943EA02238B800B46CE
:106B00002E4A43F8062B54F8032FC1F8062062687A
:106B10005A6022891A81A27A9A722BE72A89254B18
:106B200005329A80264A1A60E278E0E7B4F8053028
:106B3000B4F80320DB08934228BF13462B851523A6
:106B40001B4800216FF004046FF027020370072335
:106B5000817081714470C27003714471C27103729B
:106B60000921B0E72279E3781148134003F00303C9
:106B7000022B18BF01231722437002708370032178
:106B8000A1E76279A1790B4B42EA01229A800D4A72
:106B90001A60D4F80320C3F80620EBE6E0060020D4
:106BA0009C170020C00C0020A80B0020D80D00204E
:106BB000F80D0020E40D0020055E0000195E0000C5
:106BC000216C0000495E0000581300200026124886
:106BD000A51C818AFEF730F8081A647880B226B1C5
:106BE000022892BF0020023880B2A3B283423FF64F
:106BF000C1AE2A4631460848FEF7E0FABAE6074B2E
:106C00009B7E9A073FF5B6AE5B073FF5B3AEFFF745
:106C1000FDFCFFF725FDADE6A80B0020E0060020F7
:106C200008B5024B9879FFF7D1FC00BFE40D0020B6
:106C30002DE9F04F012891B040F00E828A88002A99
:106C400000F00C82A94B93F800A09846BAF1000F0F
:106C500000F00682A64B1C781E465CB9A548057854
:106C600002903DB9A44D28681718B7F5806F05D973
:106C700082241C70204611B0BDE8F08FDFF894929A
:106C80000968484407F0D6F9BAF1020F2F6034D0F2
:106C9000032FEFD9994F3846FEF7F8F83B78D9F82B
:106CA0000020012B3FD17B68190E012903D1C3F3CA
:106CB00007430A2B44D9924B9A4237D1BB68DA0377
:106CC0003CD5022388F80030FFF764FC28231B68BA
:106CD000B3F5804F07D21B6BB3F5804F03D29B688F
:106CE00009A900209847874B099A1A60864B0A9A8F
:106CF0001A6098F80030022BBCD1844A1378904671
:106D0000082B40F0C08082482B6801687E4F03F05A
:106D1000030A5A183F68A2EB0A02BA42814611D907
:106D200083243470A6E7764B9A4207D084233370CD
:106D30003378002B9ED033701C469BE78623F6E702
:106D40008823F8E76F4ADFF8D8B11768DBF800004E
:106D50001F440F44A7EB0A0727F4FF5727F01F072C
:106D6000874209D9391A00F50050FEF773F808B1C7
:106D70008524D6E7CBF8007028231B68B3F5804F35
:106D80007ED21A6BB2F5804F7AD22B681769A3EBCB
:106D90000A03604AD9F800100020B84707462A685D
:106DA000D9F80030A2EB0A02134453495948C9F8F4
:106DB0000030FEF7FBFE002FDAD198F80030002BF0
:106DC0007FF458AF2B687F2B7FF654AF524FDFF81C
:106DD00054B13868E8B928231B68B3F5804F13D243
:106DE0000123CDE90A0009A88DF82430FEF74EF8FA
:106DF0000A9BC3F307421B0E74D0012B6DD10A2AE4
:106E00006BD86FD14FF40370CBF8000007F026F970
:106E100038604FF02809D9F800303868B3F5804F52
:106E2000DBF80010A4D29B6A98470028A0D1D9F8BB
:106E30000030B3F5804F21D201232A68CDE9070045
:106E400006A88DF81830D7F800A00392FEF71EF8B8
:106E5000079B190E12D00129039A03D1C3F30743EC
:106E60000A2B0BD9282305A91B680091D3F834906D
:106E7000284909AB5046C847002855D0842450E71C
:106E80004FF481778BE7002B97D021492B680A6854
:106E90001A440A60204A106828221268B2F5804F0E
:106EA00011D2D76A1D491B4AB84707462A681249BA
:106EB0001848FEF77BFE40F203239F4206D10123D0
:106EC000029A1370D6E640F20227EFE740F2012360
:106ED0009F423FF472AF802423E728231B689B6BFB
:106EE000984791E74FF4C0708EE700BF860B0020F3
:106EF000850B0020840B0020800B0020080200205E
:106F0000EB17A6039015002094150020E401002043
:106F10008C0B002080070020A00B0020900B00208D
:106F200054130020A40B00209DF8243088F8003072
:106F30000393FDF749FF039B814600284DD0D0F80D
:106F400034A0002B3FF496AE00230693042310AA2E
:106F500002F82D3D06A93520FEF790FF069BDB07C2
:106F60004DD598F80030082B39D05346BAF1000FB0
:106F700036D1B9F1000F45D14FF02809394BDFF870
:106F8000FC803868C8F80430D9F80030DBF800100D
:106F9000B3F5804FBFF4ECAE9B6A984700287FF4AE
:106FA000E7AED9F800203868B2F5804F2B6850D290
:106FB000D76A41462C4AB84707462A682B492A48CF
:106FC000FEF7F4FD40F203239F423FF478AF40F216
:106FD00001239F427FF47FAF4CE68246B1E7244B0A
:106FE00010220CA903F12800039307F03FF820B901
:106FF000039B0A9A1B6A9A4201D8892491E6B9F147
:10700000000F12D04FF400514846FDF723FF00282F
:107010007FF4AEAE2AF4FF504FF4005120F01F0071
:10702000FDF718FF00287FF4A3AE98F80030082B76
:10703000A2D1104B104A18684FF4005120F4FF53AE
:1070400023F01F031360FDF705FF00287FF490AEC7
:1070500010E640F20227B0E700240BE60D2409E613
:10706000812407E6C55B000080070020800B00201C
:10707000E8E200009015002054130020900B00203F
:107080000048704700F04902FEE708B5FDF7D0FE62
:10709000084B1B6F03F00703022B04D0032B06D011
:1070A000012B02D0FEE704487047044870470448AB
:1070B000704700BF00800040C0EA2101002D31016F
:1070C00000F0490208B5FFF7E3FF044B1B6FC3F361
:1070D00001330133B0FBF3F008BD00BF0080004076
:1070E000002307B50093252817D8DFE800F0131A0E
:1070F0001D282F3A54596569758392A0161A59169E
:1071000016651A282F283A1A5928A054545454287E
:1071100028286975FFF7BCFF0090009803B05DF860
:1071200004FBFFF7CFFFF7E7FFF7B2FF454BD3F8BC
:107130009030C3F304630133B0FBF3F0ECE7FFF7E7
:10714000C1FF404B1B6FC3F38023F4E7FFF7BAFF87
:107150003C4B1B6FC3F380230133B0FBF3F04008BB
:10716000DAE70193374BD3F8803103F00303022BA6
:107170000AD0032B0CD0012B03D1002101A8FDF76D
:1071800057FF019B0093C8E7FDF70EFF0190F8E75A
:107190002D4B0193F5E700216846FDF749FFBCE759
:1071A000284BD3F8403113F0030303D0022B42D90C
:1071B000032B43D00023E5E7224BD3F86031F2E7FD
:1071C000204BD3F8003203F00703013B032B29D8EF
:1071D000DFE803F00606090C1A4BD3F80832F2E791
:1071E0004FF4004098E74FF47A7095E7FFF76AFF95
:1071F000800A91E7134BD3F8003103F00303012B0E
:1072000005D0022B0CBF4FF400430023BAE70F4B0D
:10721000B8E70C4BD3F8803003F00303022B80D087
:10722000032B01D0002077E7FDF7BEFE74E7054B86
:10723000D3F84032B7E74FF40043A3E74FF47A7333
:10724000A0E700BF00800040002D310100F049029E
:10725000044B054A9A60D3F8882042F47002C3F8C0
:107260008820704700ED00E00040000000000000B2
:107270004FF040232DE98048D3F89430ABB013F0A1
:10728000400F22AF1BD14FF00053002238461A6046
:10729000FDF7FCFDFDF798FDC0B1446BFFF77AF9EF
:1072A000249B580740F1F083FDF78EFD28231B68CF
:1072B000B3F5804FC0F01484FEF7D8FF06E04FF01E
:1072C00000531A68022ADED100221A60BFF34F8FE2
:1072D000BFF36F8FB44AB548536AB54C23F480337B
:1072E0005362B44B84425A6822F001025A6008BFCC
:1072F0004FF08042196B1CBF20F01F02203A21F092
:10730000FF0141F0A001B2F1005F196309D3AA4D5A
:10731000AA4E296842F0010299600131DE601A61CB
:10732000296084420CD0A448A54A016822F01F02BB
:1073300042F003029960DA60A24A01311A610160E9
:10734000BFF34F8FBFF36F8F05225A60964A536A7F
:1073500043F480335362BFF34F8FBFF36F8F3846D0
:10736000FEF7DEFC984B9B6DD90318D4974A13683F
:1073700023F4FF0323F4FE4343F4BC1343F4A0635C
:10738000136052F8043C23F4704343F4404342F842
:10739000043C52F8043C43F4E06342F8043C9DF89A
:1073A0008930012B0FD19DF8883063B94FF000531D
:1073B0001B68874B1B68874B1B68874B1B68874B79
:1073C0001B68874B1B68874BD3F8802042F0030271
:1073D000C3F880201B6F03F00703032B40D045F652
:1073E0000E02794B0221C3F8802041F22802995005
:1073F00042F22802012199509A6DD203FCD47A4AB4
:107400001A619969794A01F000410A439A611A6A3E
:10741000774922F00D021A629A6A22F0330242F092
:1074200001029A62684A1346906D31EA0000FBD16E
:1074300041F22801022050509A6D5600FCD41A697E
:107440004FF0004122F4700242F400121A6141F23E
:107450001802995042F228020221995001219950B4
:10746000594D0126AB6A5F4C03F0020841F2280334
:107470006048EE50FCF71CFF236F43F480632367E2
:10748000236F23F0070343F003032367FFF71AFE7C
:10749000FCF70EFF3046FFF723FE574A236F90425A
:1074A00094BF0020012023F4806343EA80232367F4
:1074B000B8F1000F02D142F22803EE500123494AED
:1074C0004E4DC2F880326B604D4B04241B6C2AAACF
:1074D0002B66002302F88C4D09A935200993FEF78D
:1074E000CDFC06238DF81B30099B8DF81A4013F450
:1074F000803F0BAC00F0FD822B6E8DF82C302B6E94
:107500008DF82D302B6E8DF82E302B6E8DF82F30A0
:107510002B6E8DF830302B6E63F03F038DF83130D9
:107520009DF8323043F001038DF83230354B5C600A
:1075300000244FF48071344B344A5961C3E900226E
:107540009A601C82324A334B3846C3E900229A6063
:107550005961202221461C8206F077FD0823012272
:107560008DF889308DF88A20B4218DF891308DF80E
:1075700092208DF899305A2240238DF88B108DF887
:1075800093202549254A8DF89B30254B3846259276
:107590002391279300F0D6FC2248234B2146036019
:1075A000224B234E436045E000ED00E0C400002084
:1075B0001801002090ED00E02C15002003000020B1
:1075C00037010020E1FFFF3F00C0004034C0004011
:1075D000004000200080002000C0002000000120AA
:1075E00000400120008000402008B00B3C8C8C0340
:1075F0000300014000B4C40480F0FA0200C001A8F6
:107600000080E00FF4010020C00C0020D80C002006
:10761000C00B0020A80B002014E200009CE2000038
:1076200058E2000088130020715900007C130020EC
:107630005813002000F000FDF2A3D3E900233060CE
:10764000CDE900234FF0FF334FF0FF3200F0C8FFC9
:1076500002224FF0FF31306800F0CFFFBE4B3946B9
:107660002293306803F500332494239300F09CFDAB
:10767000BA4DBA4930682C7000F0EAFF10B10134FD
:10768000032CF6D1B64C306801F074F8B4F9002040
:107690002978306800F066FC0146306800F0C2FFCF
:1076A0006468DFF868A3002C40F03D825046FCF788
:1076B00029FEB37B64F30003B3731022A94BAA4CD9
:1076C00083F82123002183F8222304F10A0083F8A0
:1076D000262383F8252383F8232383F8202383F8A4
:1076E00024235A2206F0B1FC42F210739F4DE3604E
:1076F0009F4B4FF49072C4E900532523637201231A
:1077000032849C4A4FF0000913701B229A4DDFF817
:1077100000832A802AAA02F8903D0DF119013E202B
:107720002372C8F80090FEF7A9FB58B19DF81930F4
:1077300039463068CDF88890C7F804908DF88A30C3
:1077400000F058FF11232AAA02F8913D15A936200E
:10775000FEF794FB20232AAA02F8923D39463920ED
:10776000FEF78CFB80BB854B9DF8172018681B79B2
:1077700022903B71002A00F0DF811B2A28BF1B22C8
:10778000531D8DF8163015A9531C0DF18D008DF881
:107790008B3006F04FFC1AA8FCF7B4FD784A9DF830
:1077A000163012882AA9FA529A1C51FA82F2002144
:1077B0001A9802F8201CBDF86C10093342F81F0C0F
:1077C00022F81B1C8DF8163020232AAA02F8933DBC
:1077D0001AA93A20FEF752FB48B96A4B1A889B78DF
:1077E000ADF868208DF86A3003238DF8153000223B
:1077F0004FF00209644B6548C3E90022644B80F8EE
:1078000004900360FCF714FD6248634B80F8049019
:10781000036010230372FDF735FC6048604B80F86D
:10782000049003605F4B80F80890C360A0F810904C
:10783000CDE900394B4690E806001430FCF7D4FC43
:107840009DF81710002900F0858115A84FF0100948
:10785000FDF742FC5448554B80F804900360FCF758
:10786000E7FC5348534B4FF6FE7B03600823524A14
:10787000A0F810B0C26080F8049003720393FDF783
:1078800001FC4E484E4AA0F810B002600C224FF0A6
:10789000020B02724B4A80F80490C260FDF7F2FBC3
:1078A00049484A4A039B0260494A80F80490C260F2
:1078B000038280F808B0FDF7E5FB4648464B80F8A8
:1078C00004900360454B80F808B0C3600123038235
:1078D000FDF7D8FB4248434B80F804900360424BCD
:1078E00080F808B0C3604FF6FE730382FDF7CAFB51
:1078F0003E483F4B80F8049003603E4B80F808B050
:10790000C3604FF6FE730382FDF7BCFB3A4B1E4A81
:107910001A604FF6FF729A809DF81620202A05D82B
:10792000931D63753946354806F084FB9DF8152094
:10793000202A06D8931D84F83D301AA9304806F055
:1079400079FBFEF797F8227C637C002A40F00581E2
:1079500043F001035EE000BF3C00940012000020F1
:10796000F401002000E100E03C010020D6BE898E39
:1079700055555500D80D0020E601002028E30000F1
:1079800032E30000FAE1000040070020501500201B
:1079900035E300008005002038E300005407002094
:1079A0003BE30000FEE10000701500203EE3000014
:1079B000D80500204FE30000A5620000300600203B
:1079C00060E30000316C00007804002071E30000E7
:1079D000E0E200008806002082E30000D4E300001B
:1079E000D004002093E30000B94E000020040020E2
:1079F000A4E30000E95200004807002058010020DD
:107A0000800100200855802800000000601300203D
:107A1000180400206374237D62F30303B27B02F039
:107A2000010262F386132375637D0BB90623637528
:107A3000BAF80410BA4BB068C4F816009980042153
:107A400094F83C3061F3030362F3861384F83C300E
:107A500094F83D3013B9062384F83D30B068BAF885
:107A60000420B04BC4F83E009A80FEF75FF8AE4C9D
:107A7000AE4B1B78002B40F0B080AD4A136923F069
:107A80000403136130BFF3E7002C3FF415ACFDF79E
:107A900053F98442BFF410ACFDF74EF904F14003F2
:107AA00083423FF609AC2046FDF76EF900283FF40B
:107AB00003AC636973B9FEF7D9FBFDF785F904469A
:107AC000FDF782F99A4B986023689D466368984752
:107AD000FFF7FCBB9DF88830012BECD1FFF7E4BB2E
:107AE0005B6A98470446FEF7C1FB002C3FF4EEABFF
:107AF000E3E70DF11B0221462C20FEF7BFF9002819
:107B00003FF416AD0DF11A0208A93C20FEF7B6F9B4
:107B10009DF8323020B19DF8202062F3000303E588
:107B200060F3000300E52068B060A288A379AAF89A
:107B300004208AF80630C0E508238DF816300423A7
:107B40008DF88B307B4B1A889B78ADF88D208DF8A3
:107B50008F3020E60321774878E66FF3000359E77A
:107B6000EFF3108672B600230DF11D011A4672481C
:107B7000FDF78FFB3046FEF741F99DF81D3013B13C
:107B80000023C8F80030D8F80020EFF3108672B652
:107B9000C2F501739BB222440DF11D016648FDF749
:107BA00078FB03463046FEF729F9D8F80000184460
:107BB0000328C8F8000010D9B4F8009009F10403B4
:107BC00098420AD306D86088002704280BD00628DC
:107BD00000F08E810023C8F800305748FDF72CF8DC
:107BE0000028BDD149E7227909F1FF33082A6F80C7
:107BF0009BB200F0F4801BD8042A504E38D0062ADD
:107C00004ED0022A1BD1022B40F06E81B4F80570D1
:107C10000022B7F5007F28BF4FF4007703231146F9
:107C200002203370A6F80170FEF70CFB2F80D1E71D
:107C3000102A00F0098104D80A2A00F08580062263
:107C4000A8E0122A00F0AF80522AF8D1B4F805005B
:107C5000FDF742F90028BDD0037B5B07BAD5A9F137
:107C6000030292B23649B4F80500FDF783F9B1E793
:107C7000042B40F08F80B4F80570B8B2FDF72CF9F2
:107C800058B1027A4168022A0CBF01230223052061
:107C9000737030707780032074E06F800A2279E07F
:107CA0004FF00203DFF89CB0A9F10702B4F8050019
:107CB000B4F8071092B28DF848300BF1020300932C
:107CC000CDF844B0019211AB0CCBFDF70FFE4FF68F
:107CD000FF7A5045814604D16368C3F30F236B805C
:107CE000DCE74FF00203CDE900778DF83830CDF8AE
:107CF00034B001300DAB0CCB514680B2FDF7F6FD30
:107D0000072350451CBF00F1FF3080B23370A6F846
:107D10000190A6F8030000220420114632E000BFC3
:107D2000520100207A010020140200203C070020AC
:107D300000ED00E02EE30000A80B0020EA01002087
:107D40001B0200201D020020022B40F0CD80B4F861
:107D50000500FDF7C1F800283DD0037B990714D535
:107D60002B882AAA013B22F8803D11A9B4F805000E
:107D7000FDF7DAF8024648B90B21624BBDF828201E
:107D800019701199FEF75EFA24E702226368C3F3C3
:107D90000F236B8001265B4B207969881E70587019
:107DA00059801A71B7E7B4F80500FDF795F890B15E
:107DB000037B1A0711D5A9F1030292B25249B4F814
:107DC0000500FDF7D7F802460028DFD113214D4BFF
:107DD00019700146D6E70122D8E70322D6E7A9F1B8
:107DE000050B1FFA8BFBBBF1020F02D0BBF1100F8A
:107DF0007CD1464BB4F80500B4F80710119300236A
:107E0000CDE900338DF848B011AB0CCBFDF76EFD1A
:107E10004FF6FF73984206463FF45EAF2B882AAABE
:107E2000043B22F88A3D0AA9FDF77EF8024608B114
:107E30006E80AFE70921334BBDF81E201970911CED
:107E400059705E800A9926E7A9F1050B1FFA8BFB92
:107E5000BBF1020F02D0BBF1100F47D10027B4F8DD
:107E60000500B4F80710DFF8A4A0CDE900775FFAA9
:107E70008BFBCDF844A08DF848B011AB0CCBFDF7CF
:107E800035FD4FF6FF79484506463FF425AFCDE96D
:107E90000077CDF83CA08DF840B001300FAB0CCB93
:107EA000494680B2FDF722FD07462B8848452AAA9D
:107EB000A3F1060318BF00F1FF3722F88A3D0AA993
:107EC000304618BFBFB2FDF72FF802460028AFD1E9
:107ED00011210C4BBDF81E201970111D59705E80C8
:107EE0009F800A9905204DE7042253E7024651E797
:107EF000074B11A911930223CDE913771293FEF7D3
:107F000079F967E6EA0100201B0200201D0200202B
:107F100010000020FEE7000008B5FFF799F9064AB7
:107F2000064B07498B4201D3FCF724F952F8040FA2
:107F300043F8040BF6E700BF6005010010000020C5
:107F40002001002038B50446054D00F097FB0FCC0A
:107F50000FC594E80F0085E80F00002038BD00BF72
:107F60009C18002047F6FF739A42F0B55ED00329B3
:107F70005ED8304BCE0013F831109819012985785E
:107F800019460DD1C3785B1B23B1416831F9131039
:107F9000914202DCE818C0B2F0BD013B1BB2F3E72E
:107FA00040680028F8D0B0F90030934204DBB0F903
:107FB00002309342B8BF13468288FF2A19BFC824F3
:107FC0002827B0F90640B0F90870A4EB03040CBFF1
:107FD0000122002294FBF7F414448A19567824B243
:107FE000721EA242A8BF22464FF47A7700EBC2016C
:107FF000CC888968013213FB041112B221EAE171C5
:1080000001F5FA71B242B1FBF7F104DA00EBC204F8
:10801000A4888C42EAD200EBC20232F8040C8842F7
:1080200028BF0846A84238BF2846B4E7FF20B3E778
:108030000020B1E79C18002070B50E46044678B1C8
:10804000084D2B7863B9084B186000F07FF8314673
:10805000204600F06BF8031C18BF01232B7070BD85
:108060000020FCE7C0180020BC180020084611467C
:1080700000F080B82DE9F843124D04460F469946AA
:1080800001216B680020904698470646C4B104F170
:108090000C004B464246394601F01EFC044618B916
:1080A0002B680120984704463EB100F0A7FB00B9B9
:1080B0001CB100216B68084698472046BDE8F8834C
:1080C0002046E6E7240000202DE9F041114D04464A
:1080D0000F466B6801210020904698470646BCB1C8
:1080E00004F10C004246394600F08BFA044618B9F8
:1080F0002B680120984704463EB100F07FFB00B991
:108100001CB100216B68084698472046BDE8F08105
:108110002046E7E7240000207047431E012B03D9C7
:10812000031F5842584170470120704738B5044634
:108130000D46002100F074FA2946204601F058FA55
:1081400000280CBF2046002038BD000010B50446B2
:1081500000F048FD44B1054AD4F88830002B08BF30
:108160001346034A136010BDE36FFFDE1981000060
:108170001800002010B50C4600F054FD1CB100F0B2
:10818000AFFD0128FBD1BDE81040024B00215B6828
:10819000032018472400002000B10C3000F0D8BDA7
:1081A00000B10C3000F0ECBD0B8810B43BB143F2D1
:1081B000C822934228BF1346642B38BF64230B8028
:1081C0004B883BB143F2C822934228BF1346642B2D
:1081D00038BF64234B808B883BB143F2C822934263
:1081E00028BF1346642B38BF64238B80CB883BB1F8
:1081F00043F2C822934228BF1346642B38BF64233E
:1082000043F2C8240A89CB804B89A24228BF224668
:10821000A34228BF23460A814B8100B10C305DF890
:10822000044B01F04FBA00002DE9F04FDFF894A1A4
:1082300085B0044600911746994601F031FCBAF822
:10824000005001F037FC00287ED15B4E636F32682E
:1082500093425ED000F044FD012839D1DFF868B1C7
:10826000226FDBF80030606F002B73D0934274D024
:108270001D68116802680DB18D427AD0204601F068
:1082800015F90023054601270193D4F884808DF861
:108290000F90B8F1000F78D000220DF10F031146B6
:1082A0002046C0477DB9D4E91C233360019BCBF83D
:1082B00000200BB9002F42D0009B2046CAF80030A6
:1082C00000F0A2FE054687B9284605B0BDE8F08F4C
:1082D000012000F0A7FC00F003FD0128FBD1374B83
:1082E00000215B6803209847B8E7B5FA85F0332191
:1082F000400900F01DFA4946204601F0F5F8304BE0
:10830000A4F10C00616F1B689847284605B0BDE8D2
:10831000F08F002B9ED0009B9D429BD1B9F1000FA6
:108320000DD067B10122D4F884508DF80E20002DB5
:1083300038D00022204611460DF10E03A847002533
:10834000284605B0BDE8F08F00231B4E336001F0D6
:10835000A9FB7BE71168026890E73168002987D0A4
:10836000814285D1009BEB1A18BF012300250193A0
:108370008BE7316811B10968914201D059687DE7F6
:108380000023012701931D467FE7617994F8BD30F2
:108390004A46994228BF1946204600F0CBFD002DE1
:1083A00091D180E7617994F8BD302046994228BF89
:1083B000194600F0BFFD87E7CC18002024000020FC
:1083C00018000020C4180020C81800202DE9F04F24
:1083D000074683B00E46FDF79FFC7B6F814613B1C5
:1083E0003B89B3424AD03B6F002B55D09C68002C90
:1083F00052D0D96800294FD0D7F884A0BAF1000F25
:1084000052D04FF00008A7F10C0B4046454600E063
:108410009C68C5EBC50204EB8204E2890135B242D7
:1084200017D8228AB24214D3B4F91210B7F9240132
:108430000193884201EAE17217DD97F8B4105846BB
:10844000FFF790FD7A79804682420ED92046019B43
:10845000D9688D42DCD338B901244846FDF7CEFCFB
:10846000204603B0BDE8F08F04460023224619469B
:108470003846D0473E817C6787F8BD80002331466F
:108480001A463846FFF7D0FE04464846FDF7B6FCCC
:10849000204603B0BDE8F08F03244846FDF7AEFC4C
:1084A000204603B0BDE8F08FD0465046554647F60B
:1084B000FF7BA7F10C0A0EE097F8B4105046FFF7C7
:1084C00051FD7A7980468242D4D92046019BD968F1
:1084D000A94215D99C68C5EBC50204EB8204E28968
:1084E0000135B242F4D8228AB242F1D3B4F9121063
:1084F0000193594501EAE172DED14FF0FF08B9E777
:108500000028A9D00446B5E7F8B50D1C18BF012511
:108510000E46074600241F21284600F009F9304680
:1085200002F000F81F21284687F8C040C7E91C6404
:1085300000F0FEF84FF6FF721C20F168E3B28B42A8
:108540000BD3154600230A4A29461360094A3846C8
:108550001360FFF73BFF2846F8BDB56800FB0353E7
:10856000DD89954202D2002DECD02A460134E5E7A0
:10857000C8180020CC180020008970470A7838B548
:1085800005461046FFF7C9FD60B14C782046FFF75D
:10859000C4FD38B12243530704D42846BDE838400F
:1085A00000F022BC012038BD00B10C30FFF7E6BF5F
:1085B00010B504460878FFF7B0FD58B14A78104668
:1085C000FFF7ABFD30B1042A04D02046BDE81040CF
:1085D00000F032BC012010BD00B10C30FFF7E8BF45
:1085E00030B4DDE9024500B10C30CDE9024530BCC4
:1085F00000F0A4BA084601F029BC00B10C3000F02C
:108600009CBB70B504460D461646FFF7DFFE30B939
:10861000324629462046BDE8704000F08BBB70BD55
:1086200001F050BA38B5044600200D4601F078FF3D
:108630004CB1D4F890304BB9294604F10C00BDE898
:10864000384000F09DBCD4F88430FFDE022038BDF5
:1086500038B5044648880D4601F062FF4CB1D4F8A5
:1086600090304BB9294604F10C00BDE8384000F0C9
:1086700011BCD4F88430FFDE022038BD01F051BFB8
:1086800038B505460C46FDF747FBA9696B690C40F8
:1086900023436B61FDF7B2FB00200CB9002138BD0C
:1086A0004FF48071FBE700B10C3000F09CBE00B1CC
:1086B0000C3000F0B2BE00004FF4007307B502AA00
:1086C00022F8023D0749FFF7F2FFBDF80630B3F587
:1086D000007F05D1022808BF002003B05DF804FB2D
:1086E0000120FAE7D01800200846114600F090BD9E
:1086F00000B10C3000F062BE38B5154658B100F13B
:108700000C0411B1204600F0A3FE35B12046BDE8AF
:10871000384000F09FBE0446F3E738BD024B1960B5
:10872000024B1860FEE700BF1C0000202000002064
:1087300008B528B9034B1960034B1868FFF7EEFF23
:1087400008BD00BF1C000020BC180020034618B163
:108750005B7B0C3013B108475B78FFDE022070476B
:1087600010B5044601F034FA2046BDE8104003215C
:1087700000F044BA00B10C30FFF7F2BF0149FFF737
:10878000E5BF00BFA99B00000149FFF7DFBF00BFA5
:10879000819B000070B5437806460C46B3B101F0EA
:1087A000D3FA616802460546304601F03FFA206878
:1087B00090FAA0F0000A00F06BFBA17A20892A460B
:1087C00081F0010101F08AFA002070BD0220FCE76F
:1087D0001FB500B10C30ADF80C309DF81830CDE964
:1087E000011201A98DF80E30FFF7D4FF05B05DF836
:1087F00004FB00207047002070470000014B1878F0
:10880000704700BFD01A0020024BD868C0F3036045
:10881000704700BF000002A87047000038B16FF039
:10882000FF02034B10401A60A3F580531860704795
:1088300020E000A8054AC002D36900F4FF2023F419
:10884000FF231843D0610020704700BF00C000A87C
:10885000C2690F4B02F06002402A12D0602A04D095
:10886000202A12D10122DA6107E071B10A68012AD7
:108870000BD94A6942F00102DA618022054B1A6184
:10888000704740F20112DA61F7E70022DA61F4E79B
:10889000201F00B0000002A80121084A084BD3F8AD
:1088A000EC3091624FF4005102F5005224325B0724
:1088B000116042BF0422034B1A6070470840004415
:1088C00000400044EC50004437B50C46174D39B910
:1088D0000A46072104F0CCFDC5E9004403B030BDD1
:1088E0000722114604F0C4FD0722114B02A81A60AA
:1088F000237901212B70637940F8043D04F0D5FD04
:10890000019BC2B2D34000F00F0040EA0310687030
:10891000A379084AAB70E379EB7023686B60237925
:108920000133136204F0C0FDD8E700BF181F00B088
:108930000C6000A8004000A870B515460C4601F078
:108940000B0323EA0201294A2B401160A2F5805251
:108950001360630706460CD503F0DCFF4FF4007389
:1089600015F0040F14BF224A224A13600422224B3E
:108970001A60E00606D515F0100F14BF00221B2266
:108980001E4B5A65210617D52A061ED54FF4001234
:108990001B4B1A60012203F587531A60FDF7BCF9DF
:1089A0000E210546032002F069FE40F20122134B1E
:1089B0002846DA62FDF722FA14F0600F03D0B16F97
:1089C0003046FFF745FF002070BD0E4B1B6F5B026A
:1089D000F2D44FF4001196F890300B4A1160002B3E
:1089E000EAD00122094B1A60E6E700BF4C6000A8FC
:1089F000245001A8246001A8702002A8004000A80B
:108A0000205001A8000002A8206001A8005101A880
:108A100000F01803182B084B02D100221A6270478D
:108A2000010702D501221A627047C206F5D540F24D
:108A300001121A62704700BF201F00B010B54B78BA
:108A40000C46324A002B37D1314B1B7813B106212B
:108A5000304B19600021304BC3F88C104FF080511F
:108A600003F5F0337C3319602C4B1B6F5B0208D489
:108A7000C36913F0800F4FF4001316BF2849136029
:108A80000B604FF060531360A378002B32D140F697
:108A9000FF72244B5A62E378002B2ED140F6FF720E
:108AA000214B5A626022214B1A60402203F5E833C1
:108AB00024331A60002010BD013BDBB2022B96BFAD
:108AC0001B49002351F823304FF0605111604FF0E3
:108AD0008051134A43F4001313600F4A936F23F03D
:108AE000060343F004039367124B19600423C2F892
:108AF0008C30C9E7FFF7D0FECDE760220E4B1A603D
:108B0000402203F5D83324331A60D3E7206001A84C
:108B1000D81A0020786000A8004000A8000002A831
:108B2000205001A808400044384000444C5000A8A0
:108B300010E400007C1002A84C6000A82DE9F34B63
:108B4000DDE90ABCD0E93689044689EA0C0188EAE5
:108B50000B0000EA020501EA030685EA080086EA3E
:108B6000090100254FF0000840F20119C4E936015F
:108B700022F001000BEA00060CEA03071946CDE9D2
:108B8000005549EA070348EA060203F019FB237877
:108B9000DB0720D5D4E93623002003F4807150EAA6
:108BA000010318D04FF480312046FFF769FD237888
:108BB00065F300032370D4E9362302EA000503EAD3
:108BC000010655EA060306D005492A4609683346D8
:108BD000A4F10C008847002002B0BDE8F08B00BF74
:108BE0002C000020034A0368002B08BF1346024AEA
:108BF00013607047198800002C00002031F00F002E
:108C000009BF044A0120D36823F00F0304BF1943AE
:108C1000D1607047201F00B0014B002019617047E0
:108C2000201F00B02DE9F34103284BD8DFE800F006
:108C300046023E42002401262546FDF76DF8074610
:108C400003F0B4FC804640B100230022CDE900339C
:108C500001200023002103F0B3FA2946304603F037
:108C600071FE22462946304603F0C2FEB8F1000FDD
:108C700016D0164B1B6803B10C33154A126F520203
:108C800008D4DB6913F0800F4FF4001314BF114AAE
:108C9000114A136011490868FFF7C0FD00230B60FB
:108CA000384602B0BDE8F041FDF7A8B80125002420
:108CB0002E46C2E7012425462646BEE70024254667
:108CC0002646BAE702B0BDE8F08100BFBC1800201C
:108CD000000002A8205001A8206001A8F81A002076
:108CE00008B5FFF791FD01380B280DD8DFE800F03B
:108CF00014140614141414080A080808032008BDE4
:108D00000420FCE70520FAE7044B5B6913F0060F2B
:108D100014BF04200120F2E70220F0E700C001A800
:108D2000034B1B6F13F0A00F0CBF012000207047F6
:108D3000000002A8114603F083BC30B4C56985EA7F
:108D400002030B406B40C36130BCFFF7F5BD000070
:108D5000014B186A02F0A4BC004001A8836F53B114
:108D60001A68022A07D9586AC0F3072030B11B6A73
:108D7000B3FBF0F070470C38FFF70EBA70470000F5
:108D8000014B186A02F0B4BC004001A8826F62B1C6
:108D90001368022B09D9536AC3F3072040B1126A42
:108DA000DBB25343B3FBF0F070470C38FFF7F8B970
:108DB0007047000043785A1F012A01D9082B05D1BA
:108DC0000B782BB1012B05D0022B05D0FFF7DEBFAE
:108DD00002487047024870470248704720A10700C8
:108DE00048E8010040420F00F8B5114D0F784C786B
:108DF0002E68FCF791FF02460E49FFF705FD0B2890
:108E000008D00C2801D0092807D11046FCF7F6FF3E
:108E10000220F8BD0B6FDB03EFD42406B3B244EAA3
:108E200007441C4310462C60FCF7E8FF0020F0E7E5
:108E3000CC1E00B0000002A8F8B5134E0C784F7895
:108E40003568FCF769FF02461049FFF7DDFC03387F
:108E500004280DD8DFE800F0030C030308001046D7
:108E6000FCF7CCFF0220F8BDD1F83031002BECD15B
:108E70002B0C1B041C4344EA072410463460FCF707
:108E8000BDFF0020EFE700BFCC1E00B0000002A82D
:108E900002F0B0BC2DE9F84304460646086816F80F
:108EA000B48FC4F8B4008B88B3808B8894F8B45026
:108EB000C4F83431FF23032DA3710BD100275FFACF
:108EC00087F9484601F03EFC08B14D4602E0013703
:108ED000032FF4D184F8B450284601F033FC20B3BA
:108EE000304601F085FB054600BB304601F020FC12
:108EF0000546D8B9636F5BB194F8B410414507D00B
:108F0000B3F91220A4F10C00FFF72CF884F8BD008F
:108F1000204601F059FD0121A4F8B80004F18800B1
:108F200002F048FF2846BDE8F8830125042384F8B1
:108F3000B430F7E770B5054690F8B4000C46042845
:108F4000164618D0FF2918D001F048FCA04204D8DA
:108F500095F8B40001F042FC0446AC71204601F0E3
:108F6000DDFCA0F1FF035C425C4116B9284601F02C
:108F700049FC204670BD0224FBE70124F9E700000C
:108F800038B590F8B4300446042B39D0456F4171A0
:108F90009DB3D0F88430BBB990F8BD308B4219D363
:108FA00000222046FFF7C6FF054658B9154B1B782F
:108FB000022B07D8204601F007FD012104F18800AB
:108FC00002F0F8FE284638BDB0F92421B5F9123078
:108FD0009A42E5DD002294F8BD102046FFF7AAFF73
:108FE00005460028EED160672046FFF7C5FA014626
:108FF0002046BDE83840FFF7E9B9FF238371E1E778
:109000000225DFE73A000020F0B5436A8BB0012B60
:1090100000F0868004460125664902F047F9626F38
:10902000238991898DF80A505B1A9BB2D2E90121FC
:1090300001FB0321604AA0671268ADF80830904236
:10904000019116D058B103684BB103693BB19968DF
:10905000D3E90023C4F89410C4E9222304E00023D8
:10906000C4E92233C4F8943001462046FFF7F0FBF0
:10907000A26F002A45D01368032B42D905AB9DF897
:109080000A200199204602F0FFFB002844D14B4AF8
:10909000FFF7BAFB01380B28FAD9536913F0060F12
:1090A000F6D105A901A802F085FD0546002833D1B7
:1090B000237860F30003237000F004FF626F431E07
:1090C0005169DBB20E68FD2B03964B682CD9B11C9D
:1090D0003BD20126FF2804932AD00020024603A990
:1090E000204600F053FEC6B9D4E93623002003F42D
:1090F000807150EA010332D1237843F001032370D9
:109100000BE02E4AFFF780FB01380B28FAD9536990
:1091100013F0060FB2D0F5E7022528460BB0F0BDDC
:10912000002528460BB0F0BD012804932DD106463A
:109130009A1CD3D3224A5268013302F1020308BFBA
:109140000026012B27D90492C8E71D4A0136116871
:1091500018BF01268F1C012F20D90391BAE74FF4C5
:1091600080312046FFF78CFAD4E9362302EA000664
:1091700003EA010756EA0703CFD0124932463B46BD
:10918000A4F10C0009688847C7E7024603A92046F6
:1091900000F0FCFDC1E7FF28A5D19EE7FF2801D024
:1091A0000493A0E7991C012904934FF0010095D87E
:1091B000C1E700BFFC1F00B0E41A002000C001A8F6
:1091C000500000202C0000204FF4807104F062B9A0
:1091D00038B590F8C0400546A4B1FCF79DFD1F22AC
:1091E000094B013C1A601440A3F580531C60D5F86C
:1091F000C420064B9A66D5F8C820DA66BDE8384028
:10920000FCF7FCBD38BD00BF246001A8004001A8E8
:1092100037B50DF106020D4601F0C0F8044688B1DD
:1092200085B12B7813F0F70F0CD0FCF775FD074BC9
:10923000BDF806201C60064B1A806A88054B1A8010
:10924000FCF7DCFD204603B030BD00BFDC1A002077
:10925000E01A0020DA1A00202DE9F74306461546E9
:10926000084619B9012003B0BDE8F083002AF9D0FF
:10927000032905D80022114601F090F80028F1D00A
:10928000038882781C0402F0070100F19180A1F1AB
:10929000070C077990F80580C488DCF1000040EBEA
:1092A0000C000529287294BF0020C2F300106872D8
:1092B000C2F38010287302F0880080283AD08828F2
:1092C0003BD008283CD101206873C2F34012AA7336
:1092D000002F38D196F8AE20013AEA73F269D2062F
:1092E00060D4063901295DD8324A063B526D9BB2E3
:1092F00006226946304800F0BEFE9DF80070E30487
:10930000A7F132077FB221D49DF801004400E0B2FA
:10931000D6F880300BB139469847E872AF726A7B55
:10932000DDF80210304602F033FE06232860AB71F0
:10933000002098E702206873C7E703206873C4E73A
:1093400000206873C1E7013FEF73C7E7B36FC4F351
:109350000B04E40093B11A68022A0FD95B6A13F078
:10936000FF0301D0B4FBF3F4A04517D8C4B1C8EB98
:109370000828B8FBF4F4E443E0B2C9E73046FFF74D
:10938000EDFC05F10D0181463046FFF713FD002885
:10939000EAD009FB04F4B4FBF0F4E5E70020B7E7FA
:1093A0002046B5E70020802328606B81A8715AE72A
:1093B000022058E7004000A838400044F8B50646AF
:1093C00014469779FFF748FF054650B9A37943B192
:1093D00004F10D01A7713046FFF7ECFC214602F0C5
:1093E000A5FD2846F8BDB3FA83F3192B084610B53E
:1093F000114610D0C3F11902D2B2062A28BF0622A4
:109400000124931D9C40A4B2A14228BF214600F034
:10941000B5FD204610BD0022F2E70846118810B5C0
:109420003F2913D9B1FA81F119290DD0C1F11901E0
:10943000C9B2062928BF062101238C1DA340138031
:1094400000F0BAFD002010BD0021F5E70120FAE789
:10945000FFF722BA38B54FF4806400200A4BD3F8E6
:10946000EC5003F503532C331C60084B186003F0D9
:109470009BFA4FF40052064B1A606A0544BFA3F5ED
:1094800077631C6038BD00BF00400044DC1A002038
:109490005C600044082310B1024A13607047024A1E
:1094A00013607047701002A8702002A80C4B10B512
:1094B000084614460B49D3F8B4200A60D3F8B82004
:1094C0004A604FF44071C3F8B410C3F8B8100121DA
:1094D00002F05AF82046012102F056F8002010BD93
:1094E000004000A8F01A0020334AF8B5D2F8B43092
:1094F000856FB3F5407F0BBF304B314A1B68C3F318
:1095000081230CBFC2F8B43013702B4A0F46D2F837
:10951000B8308189B3F5407F0BBF284B284A5B6880
:10952000C3F3812314BF5370C2F8B8304FF6FF73F2
:109530009942044603D0234B1B6803B19847224E3F
:109540003368AB4232D0214B1B682BB185B32968FD
:1095500001B1A96820469847A36F13B11A68022A7F
:1095600018D8A4F10C00FEF71BFE02F095FB0725AE
:10957000204601F029FA27B9294604F1880002F0B3
:1095800019FC06200122A46F1149124B34600860B7
:109590001A70F8BD5A6AC2F307200028E5D01B6A8A
:1095A000D2B202FB03F2B2FBF0F0DEE70125DFE707
:1095B000294620469847CFE7004000A8F01A00202F
:1095C000E81A0020EC1A0020E41A0020D41A002027
:1095D000786000A8D81A002008B548220021034866
:1095E00004F033FDBDE8084003F05EBFD01E00B0BC
:1095F0002DE9F34188460446002859D004234FF052
:10960000641280F8C0302C4BC0E92A221B78C0F8C5
:10961000B020FF2283734FF6FF738274274A4FF006
:10962000FF37C374A0F82C3113804FF04023C0F8EB
:1096300040714774D3F8843000F10C0603F0C00386
:10964000802B078332D1304602F0B8FF3046FFF757
:10965000C3FF94F90E00FFF7EDF86022184B04F5F4
:10966000A471DA643046FFF7E9F9A26A0546394683
:109670003046FFF762FB0E230022CDE9003340F2B3
:1096800001131046194602F09BFD01F073F84DB925
:109690002046FFF711F80546B8F1000F02D008B9CF
:1096A0002046C047284602B0BDE8F0810225F9E710
:1096B00084F8B400FFDE00BF30000020FC1A002058
:1096C000004000A8B0F8B8308A885A3310B59BB271
:1096D000CC889A4238BF1A46A34238BF23468A80B4
:1096E000CB800C88A0F8A0304B88A0F89C40A0F854
:1096F000A4300B89A0F8A220A0F898304B898830BC
:109700004382072102F056FB002010BD4FF6FF7286
:10971000B0F82031934211D0094A0A49526E100C18
:10972000C2F301120132B3FBF2F30880064A074983
:1097300007481B040860136000207047032070472F
:10974000004001A8FC1A0020645001A8646001A830
:109750000000FFFFF7B505460E461446FFF7E0FA96
:10976000002800F09D804FF40061284603F092FE2F
:1097700038B14FF4007201214A4B08461A60FEF7D7
:10978000F9FC31462846FEF721FE0646002870D136
:109790002B789B0601D4002C44D04FF44062424BFE
:1097A0001A6014F0020204D1404B41491B789B021D
:1097B0000B604FF440613F4B196022B93B4B3E4A6E
:1097C0005B789B02136003F0A5F84FF4806314F0FC
:1097D000040F14BF394A3A4A324F1360042240231F
:1097E00014F0400F3A6014BF364A374A20461360DF
:1097F000FFF70EF92846FFF7E7FC38B14FF4807306
:1098000014F0010F16BF314A3B601360A70602D562
:109810002846FFF77BFF003418BF01242B7864F340
:1098200045132B70284600F055F9F8B12846FFF78C
:10983000CBFCD8B14FF40031284603F02BFE0028B2
:109840000CBF01230223032201A9214800F013FCCD
:109850009DF804101F4A01F00703052B9DF8053001
:1098600012D1080708D443F480735360002000F03D
:1098700057FE304603B0F0BD59070BD49DF80630B3
:1098800043F480735360F1E703F03001202904D1E1
:10989000DB07F3D54FF48073F4E79DF80630F1E76A
:1098A0000226E6E7702002A8B46000A8E81A0020AB
:1098B000B45000A8B86000A8B85000A8245001A86F
:1098C000246001A888D000A888E000A8701002A831
:1098D00008400044AC1E00B038B504461D46FFF7F2
:1098E00039FF28B929462046BDE8384002F094BF28
:1098F00038BD00004FF6FF71084A10B513888B423F
:1099000009D00748074C1B040460A0F58050036091
:109910000020118010BD0320FCE700BFFC1A0020CE
:10992000646001A80000FFFF504B2DE9F3471C685D
:1099300081468A46154604B10C34012040F20111DB
:1099400000EA090201EA0A0313434CD000220AF09C
:109950000103134309D0464B1B6803F07F43B3F167
:10996000007F02BF0222434B1A60002309F001026C
:10997000134329D04FF000080022002300210120CA
:10998000CDE9008802F01CFC4FF0FF3001F0D2FE60
:10999000414660810120FEF7EDFB374B1B6F5A02F9
:1099A00008D4E36913F0800F4FF4001314BF334A57
:1099B000334A136033490868FEF730FF00230B6019
:1099C000237843F00403237000220AF480731343C6
:1099D00009D001212046FEF753FE2AF4807749EA98
:1099E000000947EA010AD4E9362309EA02000AEA33
:1099F000030102460B46134306460F4617D0224B7F
:109A0000A4F10C0019683B468847002306F00802C1
:109A100013431CBF00221D4B06F0FF4607F0110741
:109A200018BF1A6056EA070301D0FFF763FFEB0780
:109A30000FD51749174A08680021136811600121E2
:109A4000154A117003B19847144B00215B6802203E
:109A5000984715F00E0F06D03B21002002B0BDE85C
:109A6000F047FEF765BE02B0BDE8F087BC180020E5
:109A7000CC1E00B0081002A8000002A8205001A8C7
:109A8000206001A8F81A00202C000020DC1A002019
:109A9000041B0020001B0020FE1A002024000020D0
:109AA000704700004FF40022014B1A60704700BF5E
:109AB000702002A8024B186FC0F3C040704700BF6F
:109AC000000002A8014B024A1A607047D41A002015
:109AD000C9880000802103F0DDBC000047F6FE735A
